:100000000C9462000C948A000C948A000C948A0070
:100010000C948A000C948A000C948A000C948A0038
:100020000C948A000C948A000C948A000C948A0028
:100030000C948A000C94F2030C948A000C948A00AD
:100040000C94A8030C948A000C9476030C9450032F
:100050000C948A000C948A000C948A000C948A00F8
:100060000C948A000C948A000000000025002800EF
:100070002B0000000000240027002A0000000000E0
:1000800023002600290004040404040404040202DA
:100090000202020203030303030301020408102007
:1000A0004080010204081020010204081020000012
:1000B0000008000201000003040700000000000027
:1000C0000000AD0411241FBECFEFD8E0DEBFCDBFCE
:1000D00011E0A0E0B1E0EAEFFCE002C005900D9273
:1000E000A237B107D9F722E0A2E7B1E001C01D9223
:1000F000A93BB207E1F710E0C2E6D0E004C02197C7
:10010000FE010E947506C136D107C9F70E94F304AB
:100110000C947B060C940000AF92BF92CF92DF92BA
:10012000EF92FF920F931F93CF93DF936C017B01AC
:100130008B01040F151FEB015E01AE18BF08C0173D
:10014000D10759F06991D601ED91FC910190F081B0
:10015000E02DC6010995892B79F7C501DF91CF9173
:100160001F910F91FF90EF90DF90CF90BF90AF90D5
:100170000895FC01538D448D252F30E0842F90E0AD
:10018000821B930B541710F0CF9608950197089592
:10019000FC01918D828D981761F0A28DAE0FBF2F5B
:1001A000B11D5D968C91928D9F5F9F73928F90E0B1
:1001B00008958FEF9FEF0895FC01918D828D981720
:1001C00031F0828DE80FF11D858D90E008958FEF5D
:1001D0009FEF0895FC01918D228D892F90E0805C26
:1001E0009F4F821B91098F739927089589E791E0AA
:1001F0000E94EA0021E0892B09F420E0822F089573
:1002000080E090E0892B29F00E94F60081110C9487
:1002100000000895FC01A48DA80FB92FB11DA35AA9
:10022000BF4F2C91848D90E001968F739927848F16
:10023000A689B7892C93A089B1898C918370806439
:100240008C93938D848D981306C00288F389E02DDA
:1002500080818F7D80830895EF92FF920F931F938B
:10026000CF93DF93EC0181E0888F9B8D8C8D981369
:100270001AC0E889F989808185FF15C09FB7F89475
:10028000EE89FF896083E889F989808183708064C1
:1002900080839FBF81E090E0DF91CF911F910F910C
:1002A000FF90EF900895F62E0B8D10E00F5F1F4F1B
:1002B0000F731127E02E8C8D8E110CC00FB607FC2A
:1002C000FACFE889F989808185FFF5CFCE010E94B8
:1002D0000A01F1CFEB8DEC0FFD2FF11DE35AFF4F1B
:1002E000F0829FB7F8940B8FEA89FB898081806246
:1002F000CFCFCF93DF93EC01888D8823B9F0AA8903
:10030000BB89E889F9898C9185FD03C0808186FDD0
:100310000DC00FB607FCF7CF8C9185FFF2CF80811F
:1003200085FFEDCFCE010E940A01E9CFDF91CF9189
:1003300008953FB7F8948091730190917401A09152
:100340007501B091760126B5A89B05C02F3F19F025
:100350000196A11DB11D3FBFBA2FA92F982F882745
:10036000BC01CD01620F711D811D911D42E0660F20
:10037000771F881F991F4A95D1F70895833081F020
:1003800028F4813099F08230A9F008958730A9F0DF
:100390008830C9F08430B1F4809180008F7D03C033
:1003A000809180008F7780938000089584B58F7747
:1003B00084BD089584B58F7DFBCF8091B0008F7789
:1003C0008093B00008958091B0008F7DF9CFCF93D6
:1003D000DF93282F30E0F901E255FF4F8491F901B6
:1003E000E656FF4FD491F901EA57FF4FC491CC2351
:1003F000A1F081110E94BE01EC2FF0E0EE0FFF1F73
:10040000E458FF4FA591B491EC91ED2381E090E089
:1004100009F480E0DF91CF91089580E090E0FACF79
:1004200080911A020E94E70190931D0280931C02A2
:100430000E9499016093B5027093B6028093B7024F
:100440009093B8021092B4028FEF9FEF9093B30293
:100450008093B20220911E0230911F02E0E2F2E08E
:1004600090E080E08217930724F411921192019694
:10047000F9CF0895CF93DF9390E0FC01E656FF4F4C
:1004800024918A579F4FFC0184918823C9F090E002
:10049000880F991FFC01EE58FF4FA591B491FC0104
:1004A000E859FF4FC591D49161110DC09FB7F894E1
:1004B0008C91209582238C938881282328839FBF49
:1004C000DF91CF910895623051F49FB7F8943C9139
:1004D000822F809583238C93E8812E2BEFCF8FB7CB
:1004E000F894EC912E2B2C938FBFEACFFF920F93B1
:1004F0001F93CF93DF93182F062FF42E61E00E94F5
:100500003A02212F30E0F901E255FF4F8491F901C1
:10051000E656FF4FD491F901EA57FF4FC491CC231F
:10052000A1F081110E94BE01EC2FF0E0EE0FFF1F41
:10053000E859FF4FA591B4918FB7F894EC91F11061
:100540000DC0D095DE23DC938FBF602F812FDF910C
:10055000CF911F910F91FF900C943A02DE2BF3CFB5
:10056000FC0101900020E9F73197AF01481B590BBE
:10057000BC0189E791E00C948C00CF93DF930E943B
:10058000B002EC0182E191E00E94B0028C0F9D1F4D
:10059000DF91CF9108958F929F92AF92BF92CF92A9
:1005A000DF92EF92FF920F931F93CF93DF93CDB71C
:1005B000DEB7A1970FB6F894DEBF0FBECDBF6C01BA
:1005C000990FEE08FF08F7FE47C06DE289E791E05A
:1005D0000E942C018C0122273327A9012C193D09E7
:1005E0004E095F0919A2CE0181967C019AE0892EFD
:1005F000912CA12CB12CCA01B901A50194010E9432
:100600005306605DF70162937F01211531054105B5
:10061000510589F790E080E0309719F0CF010E94F2
:10062000B002080F191F82E191E00E94B002800F12
:10063000911FA1960FB6F894DEBF0FBECDBFDF911C
:10064000CF911F910F91FF90EF90DF90CF90BF90CF
:10065000AF909F908F900895A701960119A28E01E7
:100660000F5D1F4F8AE0C82ED12CE12CF12CCA015E
:10067000B901A70196010E945306605DF8016293DB
:100680008F01211531054105510589F7309729F072
:10069000CF010E94B0028C01C6CF10E000E0C3CFB2
:1006A0001F920F920FB60F9211242F933F934F93E7
:1006B0005F936F937F938F939F93AF93BF93EF93CA
:1006C000FF9389E791E00E940A01FF91EF91BF91AA
:1006D000AF919F918F917F916F915F914F913F91DA
:1006E0002F910F900FBE0F901F9018951F920F9291
:1006F0000FB60F9211242F938F939F93EF93FF9335
:10070000E0918901F0918A018081E0918F01F0915F
:10071000900182FD1BC09081809192018F5F8F7349
:1007200020919301821741F0E0919201F0E0E758A7
:10073000FE4F958F80939201FF91EF919F918F9142
:100740002F910F900FBE0F901F9018958081F4CFBE
:100750001F920F920FB60F9211242F933F938F93F6
:100760009F93AF93BF938091160290911702A0912F
:100770001802B09119023091720123E0230F2D3736
:1007800058F50196A11DB11D2093720180931602A8
:1007900090931702A0931802B093190280917301ED
:1007A00090917401A0917501B09176010196A11DFF
:1007B000B11D8093730190937401A0937501B09360
:1007C0007601BF91AF919F918F913F912F910F90A3
:1007D0000FBE0F901F90189526E8230F0296A11DBB
:1007E000B11DD2CF1F920F920FB60F9211240F930B
:1007F0001F932F933F934F935F936F937F938F93A9
:100800009F93AF93BF93CF93DF93EF93FF93809129
:100810007701909178019093850080938400809176
:10082000B402811142C080911A020E94E701EC01DA
:1008300080911C0290911D02C817D907B1F10E9446
:100840009901AB01BC018091B5029091B602A091D3
:10085000B702B091B8028A019B01081B190B2A0B41
:100860003B0BD901C801D0931D02C0931C024093D9
:10087000B5025093B6026093B7027093B802A80114
:10088000B9014F5551406109710943365105610560
:10089000710500F18D549440A109B109873C91057F
:1008A000A105B105D0F10E941002FF91EF91DF91F7
:1008B000CF91BF91AF919F918F917F916F915F91F8
:1008C0004F913F912F911F910F910F900FBE0F905D
:1008D0001F9018958091B2029091B3029C012F5FF6
:1008E0003F4F3093B3022093B202880F991FFC014F
:1008F000EE5DFD4F81E090E0CD2B11F090E080E0C7
:10090000918380838091B2029091B30288349105E3
:1009100064F281E08093B402C8CF8091B2029091DA
:10092000B30221E030E0CD2B11F030E020E0FC01FB
:10093000EE0FFF1FEE5DFD4F31832083AC014E5F54
:100940005F4F5093B3024093B202880F991FFC018E
:10095000EC5DFD4F31832083D5CFE9E7F1E01382D1
:10096000128288EE93E0A0E0B0E084839583A683B2
:10097000B78384E091E09183808385EC90E0958754
:10098000848784EC90E09787868780EC90E0918B59
:10099000808B81EC90E0938B828B82EC90E0958B46
:1009A000848B86EC90E0978B868B118E128E138E43
:1009B000148E8FB7F89440911602509117026091EF
:1009C0001802709119028FBFEAE1F2E013821282DD
:1009D00089E490E0958384831092B4028BE090E0E8
:1009E000918380830895789484B5826084BD84B5B2
:1009F000816084BD85B5826085BD85B5816085BD1A
:100A000080916E00816080936E00109281008091D1
:100A10008100826080938100809181008160809359
:100A20008100809180008160809380008091B1007E
:100A300084608093B1008091B00081608093B000A9
:100A400080917A00846080937A0080917A0082603D
:100A500080937A0080917A00816080937A008091FF
:100A60007A00806880937A001092C100E091890139
:100A7000F0918A0182E08083E0918501F091860106
:100A80001082E0918701F09188018FEC80831092B1
:100A90009101E0918D01F0918E0186E08083E091DB
:100AA0008B01F0918C01808180618083E0918B01CA
:100AB000F0918C01808188608083E0918B01F091BE
:100AC0008C01808180688083E0918B01F0918C01A2
:100AD00080818F7D808385E191E00E94BD0262E08C
:100AE00082E00E943A0262E08CE00E943A0262E0F8
:100AF00084E00E943A0262E085E00E943A0262E0ED
:100B000086E00E943A0240E061E087E00E947602BF
:100B100040E061E088E00E94760241E060E089E028
:100B20000E94760240E061E08AE00E94760240E0A6
:100B300060E08BE00E9476020E941002F89410920E
:100B400080001092810083E294EF9093780180936B
:100B50007701909385008093840080918100846068
:100B60008093810080916F00816080936F00789402
:100B7000C0E0D0E08091B402882311F100E212E0DD
:100B8000F12CE12C80911E0290911F02E816F906CB
:100B90008CF4F801819191918F01892B41F08BE1C7
:100BA00091E00E94B002FFEFEF1AFF0AEBCF8DE158
:100BB00091E0F7CF82E191E00E94B0020E94100222
:100BC0008FE191E00E94B00285E00E94E7010E945F
:100BD000CB028FE291E00E94B00282E00E94E70126
:100BE0000E94CB0289E391E00E94B00286E00E945D
:100BF000E7010E94CB028AE491E00E94B0028CE0FF
:100C00000E94E7010E94CB0282E191E00E94B002C3
:100C100085E00E94E7010197C9F582E00E94E701A3
:100C2000892BA1F585E591E00E94BD020E94990102
:100C30004B015C0188E8C82E83E1D82EE12CF12C11
:100C40000E949901681979098A099B09683E7340D5
:100C500081059105A8F321E0C21AD108E108F10845
:100C600088EE880E83E0981EA11CB11CC114D1042B
:100C7000E104F10429F7209709F47CCF0E94F600E3
:100C8000882309F477CF0E94000074CF86E00E9489
:100C9000E701019759F68CE00E94E701892B31F6B4
:100CA00083E691E0C1CFA1E21A2EAA1BBB1BFD0176
:100CB0000DC0AA1FBB1FEE1FFF1FA217B307E4073B
:100CC000F50720F0A21BB30BE40BF50B661F771F93
:100CD000881F991F1A9469F7609570958095909573
:100CE0009B01AC01BD01CF010895EE0FFF1F0590E0
:0A0CF000F491E02D0994F894FFCF71
:100CFA00000000002C018C00B9007901EA00C8004C
:100D0A00DC000D0A00736574757000310030005004
:100D1A00494E5F4F50454E5F4C494D495420005053
:100D2A00494E5F4F50454E200050494E5F434C4F4D
:100D3A0053455F4C494D4954200050494E5F434C3E
:100D4A004F534520007365742073746174206F706B
:100D5A00656E00736574207374617420636C6F73BD
:020D6A00650022
:00000001FF
