:100000000C945D000C9485000C9485000C94850084
:100010000C9485000C9485000C9485000C9485004C
:100020000C9485000C9485000C9485000C940903B5
:100030000C9485000C9485000C9485000C9485002C
:100040000C94BF020C9485000C948D020C946702F2
:100050000C9485000C9485000C9485000C9485000C
:100060000C9485000C9485000000000025002800F9
:100070002B000000000023002600290004040404D3
:100080000404040402020202020203030303030342
:10009000010204081020408001020408102001021F
:1000A00004081020000000080002010000030407FB
:1000B0000000000000000000500311241FBECFEF1D
:1000C000D8E0DEBFCDBF11E0A0E0B1E0EEE4FBE0A0
:1000D00002C005900D92A032B107D9F723E0A0E24B
:1000E000B1E001C01D92A730B207E1F710E0CDE505
:1000F000D0E004C02197FE010E949F05CC35D107B6
:10010000C9F70E9487030C94A5050C940000AF92D8
:10011000BF92CF92DF92EF92FF920F931F93CF93F4
:10012000DF936C017B018B01040F151FEB015E0156
:10013000AE18BF08C017D10759F06991D601ED91EB
:10014000FC910190F081E02DC6010995892B79F78A
:10015000C501DF91CF911F910F91FF90EF90DF903C
:10016000CF90BF90AF900895FC01538D448D252F03
:1001700030E0842F90E0821B930B541710F0CF9641
:10018000089501970895FC01918D828D981761F073
:10019000A28DAE0FBF2FB11D5D968C91928D9F5F8A
:1001A0009F73928F90E008958FEF9FEF0895FC0169
:1001B000918D828D981731F0828DE80FF11D858D1C
:1001C00090E008958FEF9FEF0895FC01918D228DAF
:1001D000892F90E0805C9F4F821B91098F73992734
:1001E00008958FE291E00E94E50021E0892B09F457
:1001F00020E0822F089580E090E0892B29F00E9472
:10020000F10081110C9400000895FC01A48DA80F49
:10021000B92FB11DA35ABF4F2C91848D90E0019648
:100220008F739927848FA689B7892C93A089B18968
:100230008C91837080648C93938D848D981306C009
:100240000288F389E02D80818F7D80830895EF926D
:10025000FF920F931F93CF93DF93EC0181E0888F80
:100260009B8D8C8D98131AC0E889F989808185FF50
:1002700015C09FB7F894EE89FF896083E889F989F2
:1002800080818370806480839FBF81E090E0DF91F4
:10029000CF911F910F91FF90EF900895F62E0B8D47
:1002A00010E00F5F1F4F0F731127E02E8C8D8E1102
:1002B0000CC00FB607FCFACFE889F989808185FF69
:1002C000F5CFCE010E940501F1CFEB8DEC0FFD2F94
:1002D000F11DE35AFF4FF0829FB7F8940B8FEA8924
:1002E000FB8980818062CFCFCF93DF93EC01888D33
:1002F0008823B9F0AA89BB89E889F9898C9185FDA1
:1003000003C0808186FD0DC00FB607FCF7CF8C912E
:1003100085FFF2CF808185FFEDCFCE010E940501E0
:10032000E9CFDF91CF9108953FB7F89480912B01E9
:1003300090912C01A0912D01B0912E0126B5A89B82
:1003400005C02F3F19F00196A11DB11D3FBFBA2F67
:10035000A92F982F8827BC01CD01620F711D811D27
:10036000911D42E0660F771F881F991F4A95D1F7AC
:100370000895833081F028F4813099F08230A9F01B
:1003800008958730A9F08830C9F08430B1F48091A5
:1003900080008F7D03C0809180008F7780938000E4
:1003A000089584B58F7784BD089584B58F7DFBCF84
:1003B0008091B0008F778093B00008958091B00055
:1003C0008F7DF9CFCF93DF93282F30E0F901EC55E3
:1003D000FF4F8491F901E057FF4FD491F901E458A0
:1003E000FF4FC491CC23A1F081110E94B901EC2FE1
:1003F000F0E0EE0FFF1FEE58FF4FA591B491EC9186
:10040000ED2381E090E009F480E0DF91CF91089541
:1004100080E090E0FACF8BE00E94E2019093CD0162
:100420008093CC010E9494011092FE028FEF9FEF07
:100430009093FD028093FC022091CE013091CF0178
:10044000E0EDF1E090E080E08217930724F4119250
:1004500011920196F9CF08951F93CF93DF93282F20
:1004600030E0F901EC55FF4F8491F901E057FF4F5F
:10047000D491F901E458FF4FC491CC23A9F0162F71
:1004800081110E94B901EC2FF0E0EE0FFF1FE85937
:10049000FF4FA591B4918FB7F894EC91111108C05A
:1004A000D095DE23DC938FBFDF91CF911F9108950C
:1004B000DE2BF8CFFC0101900020E9F73197AF0166
:1004C000481B590BBC018FE291E00C9487001F92EE
:1004D0000F920FB60F9211242F933F934F935F9378
:1004E0006F937F938F939F93AF93BF93EF93FF93FC
:1004F0008FE291E00E940501FF91EF91BF91AF91D2
:100500009F918F917F916F915F914F913F912F912B
:100510000F900FBE0F901F9018951F920F920FB65D
:100520000F9211242F938F939F93EF93FF93E0915A
:100530003F01F09140018081E0914501F091460139
:1005400082FD1BC09081809148018F5F8F73209145
:100550004901821741F0E0914801F0E0E15DFE4F72
:10056000958F80934801FF91EF919F918F912F91EB
:100570000F900FBE0F901F9018958081F4CF1F929F
:100580000F920FB60F9211242F933F938F939F9347
:10059000AF93BF938091270190912801A0912901E9
:1005A000B0912A013091260123E0230F2D3758F511
:1005B0000196A11DB11D20932601809327019093E0
:1005C0002801A0932901B0932A0180912B019091D9
:1005D0002C01A0912D01B0912E010196A11DB11DFC
:1005E00080932B0190932C01A0932D01B0932E01A9
:1005F000BF91AF919F918F913F912F910F900FBE1F
:100600000F901F90189526E8230F0296A11DB11D8B
:10061000D2CF1F920F920FB60F9211242F933F93B8
:100620004F935F936F937F938F939F93AF93BF93FA
:10063000EF93FF93809125018823D9F080912401C5
:1006400091E0980F90932401811113C060E08AE03B
:100650000E942C0260E08CE00E942C021092250186
:100660008091220190912301019690932301809320
:10067000220180912401883010F010922401FF9112
:10068000EF91BF91AF919F918F917F916F915F910A
:100690004F913F912F910F900FBE0F901F90189583
:1006A000EFE2F1E01382128288EE93E0A0E0B0E086
:1006B00084839583A683B78384E091E091838083CC
:1006C00085EC90E09587848784EC90E09787868717
:1006D00080EC90E0918B808B81EC90E0938B828B0F
:1006E00082EC90E0958B848B86EC90E0978B868BE8
:1006F000118E128E138E148EECECF1E011821082AA
:1007000086E990E0938382831092FE020895CF934E
:10071000DF9300D000D000D0CDB7DEB7789484B599
:10072000826084BD84B5816084BD85B5826085BDED
:1007300085B5816085BD80916E00816080936E007B
:10074000109281008091810082608093810080916D
:10075000810081608093810080918000816080931E
:1007600080008091B10084608093B1008091B000DE
:1007700081608093B00080917A00846080937A00D9
:1007800080917A00826080937A0080917A00816003
:1007900080937A0080917A00806880937A0010922A
:1007A000C100E0913F01F091400182E08083E0913F
:1007B0003B01F0913C011082E0913D01F0913E013E
:1007C0008FEC808310924701E0914301F091440146
:1007D00086E08083E0914101F09142018081806157
:1007E0008083E0914101F0914201808188608083A3
:1007F000E0914101F0914201808180688083E09125
:100800004101F091420180818F7D808382E191E0FE
:100810000E945A0288E191E00E945A020E940B0253
:100820008091FE0281115EC08BE00E94E2019E83F6
:100830008D838091CC019091CD012D813E8128172F
:10084000390709F44BC00E9494011B012C019B0144
:10085000AC0160E070E080E090E0A090FF02B0901A
:100860000003C0900103D0900203E0900303F090D6
:10087000040300910503109106030E949605B22F10
:10088000A32FF42FE52F69837A838B839C834D817B
:100890005E815093CD014093CC012092FF023092B3
:1008A000000340920103509202031092030310923E
:1008B000040310920503109206032B2F3A2F4F2F9B
:1008C0005E2F2D3511E03107410551056105710598
:1008D0008105910509F088F50E940B028091FE02C6
:1008E0008823F1F080ED91E09E838D83ED81FE8180
:1008F00081919191FE83ED83892B09F4B5C08BE141
:1009000091E00E945A0228E932E04D815E8124176D
:10091000350761F788E191E00E945A020E940B02BC
:1009200080E090E0892B09F47BCF0E94F1008823BE
:1009300009F476CF0E94000073CF4EE5A42EBB24AD
:10094000B394C12CD12CE12CF12C00E010E04F2FFE
:1009500069817A818B819C810E9439058091FC029A
:100960009091FD0221303105E1F49C012F5F3F4F52
:100970003093FD022093FC02880F991FFC01EE5278
:10098000FE4F2D813E81318320838091FC02909126
:10099000FD02843791050CF4A1CF81E08093FE0223
:1009A0009DCF22303105B1F4FC01EE0FFF1FEE5256
:1009B000FE4F4D815E815183408302969093FD02EC
:1009C0008093FC02880F991FFC01E053FE4F518376
:1009D0004083DBCF23303105E9F49C012D5F3F4F8D
:1009E000F901EE0FFF1FE453FE4F4D815E815183ED
:1009F0004083FC01EE0FFF1FEC52FE4F51834083FA
:100A00003093FD022093FC02880F991FFC01EA52EB
:100A1000FE4FDDCF2430310509F0B7CFFC01EE0FDA
:100A2000FF1FEE52FE4F2D813E81318320839C01BA
:100A30002C5F3F4FF901EE0FFF1FE453FE4F4D8136
:100A40005E8151834083FC01EE0FFF1FEA52FE4F8F
:100A5000518340833093FD022093FC02880F991F3D
:100A6000FC01E852FE4FB3CF8DE191E04ACF68948C
:100A700001C0E8948F929F92CF93DF930E94450527
:100A8000DF91CF919F908F90089588249924F4014D
:100A9000E401B0E49F93AA279A158B049C04ED050A
:100AA000FE05CF05D007A10798F4AD2FDC2FCF2F7F
:100AB000FE2FE92D982C892E982F872F762F652FC2
:100AC000542F432F322F2227B85031F7BF9127C020
:100AD0001B2EBF91BB27220F331F441F551F661FBC
:100AE000771F881F991F881C991CEE1FFF1FCC1FA2
:100AF000DD1FAA1FBB1F8A149B04EC05FD05CE0554
:100B0000DF05A007B10748F08A189B08EC09FD092A
:100B1000CE09DF09A00BB10B21601A94E1F62EF487
:100B20009401AF01BE01CD01000C08952A193B09C3
:100B30004C095D096E097F09800B910B0895EE0F3A
:0E0B4000FF1F0590F491E02D0994F894FFCF6B
:100B4E000000000027018700B4007401E500C30017
:100B5E00D7007365747570000D0A00310030000007
:00000001FF
