:100000000C9462000C948A000C948A000C948A0070
:100010000C948A000C948A000C948A000C948A0038
:100020000C948A000C948A000C948A000C948A0028
:100030000C948A000C9472030C948A000C948A002D
:100040000C9428030C948A000C94F6020C94D002B1
:100050000C948A000C948A000C948A000C948A00F8
:100060000C948A000C948A000000000025002800EF
:100070002B0000000000240027002A0000000000E0
:1000800023002600290004040404040404040202DA
:100090000202020203030303030301020408102007
:1000A0004080010204081020010204081020000012
:1000B0000008000201000003040700000000000027
:1000C00000002E0411241FBECFEFD8E0DEBFCDBF4D
:1000D00011E0A0E0B1E0E4E9FBE002C005900D9280
:1000E000A032B107D9F722E0A0E2B1E001C01D9231
:1000F000A839B207E1F710E0C2E6D0E004C02197CA
:10010000FE010E94C205C136D107C9F70E94C20490
:100110000C94C8050C940000AF92BF92CF92DF926E
:10012000EF92FF920F931F93CF93DF936C017B01AC
:100130008B01040F151FEB015E01AE18BF08C0173D
:10014000D10759F06991D601ED91FC910190F081B0
:10015000E02DC6010995892B79F7C501DF91CF9173
:100160001F910F91FF90EF90DF90CF90BF90AF90D5
:100170000895FC01538D448D252F30E0842F90E0AD
:10018000821B930B541710F0CF9608950197089592
:10019000FC01918D828D981761F0A28DAE0FBF2F5B
:1001A000B11D5D968C91928D9F5F9F73928F90E0B1
:1001B00008958FEF9FEF0895FC01918D828D981720
:1001C00031F0828DE80FF11D858D90E008958FEF5D
:1001D0009FEF0895FC01918D228D892F90E0805C26
:1001E0009F4F821B91098F739927089587E291E0B1
:1001F0000E94EA0021E0892B09F420E0822F089573
:1002000080E090E0892B29F00E94F60081110C9487
:1002100000000895FC01A48DA80FB92FB11DA35AA9
:10022000BF4F2C91848D90E001968F739927848F16
:10023000A689B7892C93A089B1898C918370806439
:100240008C93938D848D981306C00288F389E02DDA
:1002500080818F7D80830895EF92FF920F931F938B
:10026000CF93DF93EC0181E0888F9B8D8C8D981369
:100270001AC0E889F989808185FF15C09FB7F89475
:10028000EE89FF896083E889F989808183708064C1
:1002900080839FBF81E090E0DF91CF911F910F910C
:1002A000FF90EF900895F62E0B8D10E00F5F1F4F1B
:1002B0000F731127E02E8C8D8E110CC00FB607FC2A
:1002C000FACFE889F989808185FFF5CFCE010E94B8
:1002D0000A01F1CFEB8DEC0FFD2FF11DE35AFF4F1B
:1002E000F0829FB7F8940B8FEA89FB898081806246
:1002F000CFCFCF93DF93EC01888D8823B9F0AA8903
:10030000BB89E889F9898C9185FD03C0808186FDD0
:100310000DC00FB607FCF7CF8C9185FFF2CF80811F
:1003200085FFEDCFCE010E940A01E9CFDF91CF9189
:1003300008953FB7F8948091210190912201A091F6
:100340002301B091240126B5A89B05C02F3F19F0C9
:100350000196A11DB11D3FBFBA2FA92F982F882745
:10036000BC01CD01620F711D811D911D42E0660F20
:10037000771F881F991F4A95D1F70895833081F020
:1003800028F4813099F08230A9F008958730A9F0DF
:100390008830C9F08430B1F4809180008F7D03C033
:1003A000809180008F7780938000089584B58F7747
:1003B00084BD089584B58F7DFBCF8091B0008F7789
:1003C0008093B00008958091B0008F7DF9CFCF93D6
:1003D000DF93282F30E0F901E255FF4F8491F901B6
:1003E000E656FF4FD491F901EA57FF4FC491CC2351
:1003F000A1F081110E94BE01EC2FF0E0EE0FFF1F73
:10040000E458FF4FA591B491EC91ED2381E090E089
:1004100009F480E0DF91CF91089580E090E0FACF79
:100420008091C8010E94E7019093CB018093CA019B
:100430000E94990160936C0270936D0280936E022A
:1004400090936F028EE680936B028FEF9FEF9093F5
:1004500069028093680210926A0210926002109200
:100460006102109262021092630210926402109272
:10047000650210926602109267022091CC013091C1
:10048000CD01EEECF1E090E080E08217930724F4D8
:10049000119211920196F9CF0895CF93DF9390E0D6
:1004A000FC01E656FF4F24918A579F4FFC0184912F
:1004B0008823C9F090E0880F991FFC01EE58FF4F88
:1004C000A591B491FC01E859FF4FC591D4916111F8
:1004D0000DC09FB7F8948C91209582238C938881CE
:1004E000282328839FBFDF91CF910895623051F474
:1004F0009FB7F8943C91822F809583238C93E88159
:100500002E2BEFCF8FB7F894EC912E2B2C938FBF1F
:10051000EACFFF920F931F93CF93DF93182F062FED
:10052000F42E61E00E944D02212F30E0F901E255E6
:10053000FF4F8491F901E656FF4FD491F901EA5734
:10054000FF4FC491CC23A1F081110E94BE01EC2F7A
:10055000F0E0EE0FFF1FE859FF4FA591B4918FB760
:10056000F894EC91F1100DC0D095DE23DC938FBF91
:10057000602F812FDF91CF911F910F91FF900C94ED
:100580004D02DE2BF3CFFC0101900020E9F73197FB
:10059000AF01481B590BBC0187E291E00C948C0021
:1005A0001F920F920FB60F9211242F933F934F93E8
:1005B0005F936F937F938F939F93AF93BF93EF93CB
:1005C000FF9387E291E00E940A01FF91EF91BF91B2
:1005D000AF919F918F917F916F915F914F913F91DB
:1005E0002F910F900FBE0F901F9018951F920F9292
:1005F0000FB60F9211242F938F939F93EF93FF9336
:10060000E0913701F09138018081E0913D01F09156
:100610003E0182FD1BC09081809140018F5F8F73EE
:1006200020914101821741F0E0914001F0E0E95D45
:10063000FE4F958F80934001FF91EF919F918F9195
:100640002F910F900FBE0F901F9018958081F4CFBF
:100650001F920F920FB60F9211242F933F938F93F7
:100660009F93AF93BF938091C4019091C501A091D6
:10067000C601B091C7013091200123E0230F2D372F
:1006800058F50196A11DB11D209320018093C4014E
:100690009093C501A093C601B093C7018091210139
:1006A00090912201A0912301B09124010196A11DF6
:1006B000B11D8093210190932201A0932301B09357
:1006C0002401BF91AF919F918F913F912F910F90F6
:1006D0000FBE0F901F90189526E8230F0296A11DBC
:1006E000B11DD2CF1F920F920FB60F9211240F930C
:1006F0001F932F933F934F935F936F937F938F93AA
:100700009F93AF93BF93CF93DF93EF93FF9380912A
:10071000250190912601909385008093840080911B
:100720006B028E3609F042C08091C8010E94E70139
:10073000EC018091CA019091CB01C817D907B1F1A2
:100740000E949901AB01BC0180916C0290916D02F5
:10075000A0916E02B0916F028A019B01081B190BD8
:100760002A0B3B0BD901C801D093CB01C093CA011E
:1007700040936C0250936D0260936E0270936F020F
:10078000A801B9014F55514061097109433651051E
:100790006105710500F18D549440A109B109873CB0
:1007A0009105A105B105D0F10E941002FF91EF91D2
:1007B000DF91CF91BF91AF919F918F917F916F9179
:1007C0005F914F913F912F911F910F910F900FBE0D
:1007D0000F901F90189580916802909169029C017A
:1007E0002F5F3F4F3093690220936802880F991F53
:1007F000FC01E053FE4F81E090E0CD2B11F090E042
:1008000080E09183808380916802909169028834AE
:10081000910564F282E680936B02C8CF80916802F2
:100820009091690221E030E0CD2B11F030E020E022
:10083000FC01EE0FFF1FE053FE4F31832083AC011C
:100840004E5F5F4F5093690240936802880F991F73
:10085000FC01EE52FE4F31832083D5CFE7E2F1E079
:100860001382128288EE93E0A0E0B0E08483958347
:10087000A683B78384E091E09183808385EC90E048
:100880009587848784EC90E09787868780EC90E05A
:10089000918B808B81EC90E0938B828B82EC90E04B
:1008A000958B848B86EC90E0978B868B118E128EC5
:1008B000138E148E8FB7F8944091C4015091C501E6
:1008C0006091C6017091C7018FBFA8ECB1E013968B
:1008D0001C921E92129789E490E015969C938E9339
:1008E0001497E0E6F2E010821182128213821482E1
:1008F00015821682178210926A028EE680936B022E
:10090000E0E7F2E086EA808389E4818382E98283FA
:1009100096E293832DE424832BE9258396839DE03F
:100920009783E8E7F2E080831182128213821482B7
:10093000158216821782E0E8F2E083E98083118253
:10094000128213821482158216821782E8E8F2E07E
:100950008AE98083118212821382148215821682A0
:100960001782E0E9F2E082ED808311821282138225
:1009700014821582168217828BE090E08D939C93EF
:100980000C949901789484B5826084BD84B58160AB
:1009900084BD85B5826085BD85B5816085BD80914A
:1009A0006E00816080936E001092810080918100C2
:1009B00082608093810080918100816080938100BA
:1009C000809180008160809380008091B10084607C
:1009D0008093B1008091B00081608093B0008091DD
:1009E0007A00846080937A0080917A00826080939C
:1009F0007A0080917A00816080937A0080917A00F9
:100A0000806880937A001092C100E0913701F091E4
:100A1000380182E08083E0913301F091340110824B
:100A2000E0913501F09136018FEC808310923F0107
:100A3000E0913B01F0913C0186E08083E091390137
:100A4000F0913A01808180618083E0913901F091D9
:100A50003A01808188608083E0913901F0913A0108
:100A6000808180688083E0913901F0913A01808132
:100A70008F7D808382E191E00E94C30288E191E052
:100A80000E94C30262E082E00E944D0262E08CE0BC
:100A90000E944D0262E084E00E944D0262E085E027
:100AA0000E944D0262E086E00E944D0240E061E05B
:100AB00087E00E94890240E061E088E00E948902AC
:100AC00041E060E089E00E94890240E061E08AE064
:100AD0000E94890240E060E08BE00E9489020E944F
:100AE0001002F89410928000109281008CEF9FEF1A
:100AF0009093260180932501909385008093840034
:100B0000809181008260809381008091810081606A
:100B10008093810080916F00816080936F00789452
:100B200080E0E82E80E0F82E80916B028E3601F195
:100B30000EEC11E0D0E0C0E08091CC019091CD01AD
:100B4000C817D9077CF4F801819191918F01892B05
:100B500031F08BE191E00E94C3022196EDCF8DE14F
:100B600091E0F9CF88E191E00E94C3020E94100257
:100B7000E114F104C9F20E94F6008823A9F20E9450
:100B80000000D2CFEE0FFF1F0590F491E02D0994E5
:040B9000F894FFCF07
:100B9400000000002C018C00B9007901EA00C800B3
:100BA400DC007365747570000D0A003100300000BC
:00000001FF
