:100000000C9462000C948A000C948A000C948A0070
:100010000C948A000C948A000C948A000C948A0038
:100020000C948A000C948A000C948A000C94E502CB
:100030000C948A000C948A000C948A000C948A0018
:100040000C945B040C948A000C9429040C94030413
:100050000C948A000C948A000C948A000C948A00F8
:100060000C948A000C948A000000000024002700F1
:100070002A0000000000250028002B0000000000DE
:1000800023002600290004040404040404040202DA
:100090000202020203030303030301020408102007
:1000A0004080010204081020010204081020000012
:1000B0000008000201000003040700000000000027
:1000C0000000A50411241FBECFEFD8E0DEBFCDBFD6
:1000D00011E0A0E0B1E0E8E8F2E102C005900D9285
:1000E000A83CB107D9F722E0A8ECB1E001C01D920D
:1000F000AB3DB207E1F710E0C2E6D0E004C02197C3
:10010000FE010E942509C136D107C9F70E94DA0411
:100110000C9442090C940000FC01538D448D252F52
:1001200030E0842F90E0821B930B541710F0CF9691
:10013000089501970895FC01918D828D981761F0C3
:10014000828DDF01A80FB11D5D968C91928D9F5F0E
:100150009F73928F90E008958FEF9FEF0895FC01B9
:10016000918D828D981731F0828DE80FF11D858D6C
:1001700090E008958FEF9FEF0895FC01918D228DFF
:10018000892F90E0805C9F4F821B91098F73992784
:10019000089588E392E00E94BD0021E0892B09F4D4
:1001A00020E0822F0895FC01848DDF01A80FB11D8E
:1001B000A35ABF4F2C91848D90E001968F7399279D
:1001C000848FA689B7892C93A089B1898C9183707B
:1001D00080648C93938D848D981306C00288F38974
:1001E000E02D80818F7D80830895EF92FF920F93A1
:1001F0001F93CF93DF93EC0181E0888F9B8D8C8DD3
:10020000981305C0E889F989808185FD26C0F62EFE
:100210000B8D10E00F5F1F4F0F731127E02E8C8D99
:10022000E8120CC00FB607FCFACFE889F989808183
:1002300085FFF5CFCE010E94D300F1CF8B8DFE015B
:10024000E80FF11DE35AFF4FF0829FB7F8940B8F30
:10025000EA89FB89808180620AC09FB7F894EE89A1
:10026000FF896083E889F989808183708064808355
:100270009FBF81E090E0DF91CF911F910F91FF90A0
:10028000EF900895CF93DF93EC01888D8823C9F018
:10029000EA89FB89808185FD05C0A889B9898C918F
:1002A00086FD0FC00FB607FCF5CF808185FFF2CF2A
:1002B000A889B9898C9185FFEDCFCE010E94D3002A
:1002C000E7CFDF91CF91089580E090E0892B29F06E
:1002D0000E94C90081110C9400000895CF92DF9212
:1002E000EF92FF920F931F93CF93DF936C017A01EC
:1002F0008B01C0E0D0E0CE15DF0581F0D8016D9113
:100300008D01D601ED91FC910190F081E02DC601A7
:100310000995892B11F02196EECF7E01C701DF915F
:10032000CF911F910F91FF90EF90DF90CF900895A4
:10033000089580E090E00895833081F028F48130C2
:1003400099F08230A1F008958730A9F08830B9F093
:100350008430D1F4809180008F7D03C08091800033
:100360008F7780938000089584B58F7702C084B51D
:100370008F7D84BD08958091B0008F7703C08091F8
:10038000B0008F7D8093B0000895CF93DF93282F26
:1003900030E0F901E255FF4F8491F901E656FF4F35
:1003A000D491F901EA57FF4FC491CC2391F0811108
:1003B0000E949C01EC2FF0E0EE0FFF1FE458FF4F6E
:1003C000A591B491EC91ED2381E090E021F480E0DF
:1003D00002C080E090E0DF91CF9108951F93CF930A
:1003E000DF93282F30E0F901E255FF4F8491F901A6
:1003F000E656FF4FD491F901EA57FF4FC491CC2341
:10040000C1F0162F81110E949C01EC2FF0E0EE0F3D
:10041000FF1FEE58FF4FA591B4919FB7F8941111AB
:1004200004C08C91D095D82302C0EC91DE2BDC93D4
:100430009FBFDF91CF911F910895CF93DF9390E0FD
:10044000FC01E656FF4F2491FC01EA57FF4F8491CF
:10045000882361F190E0880F991FFC01E859FF4F54
:10046000C591D491FC01EE58FF4FA591B491611153
:1004700009C09FB7F8948881209582238883EC91E6
:100480002E230BC0623061F49FB7F8948881322F1D
:10049000309583238883EC912E2B2C939FBF06C02D
:1004A0008FB7F894E8812E2B28838FBFDF91CF91EF
:1004B00008953FB7F8948091CD019091CE01A0911D
:1004C000CF01B091D00126B5A89B05C02F3F19F0F0
:1004D0000196A11DB11D3FBFBA2FA92F982F8827C4
:1004E000820F911DA11DB11DBC01CD0142E0660F1F
:1004F000771F881F991F4A95D1F70895EF92FF92B1
:100500000F931F93CF93DF93EC017B018A01FB01D3
:100510008081811104C0FA018081882311F061E09B
:1005200001C060E08E810E94EE01F7018081882386
:1005300011F061E001C060E088850E94EE01F801E1
:100540008081882311F061E001C060E08F81DF913C
:10055000CF911F910F91FF90EF900C94EE01CF93EC
:10056000DF9300D0CDB7DEB71A821982AE014E5F9D
:100570005F4FBE016F5F7F4F0E947E020F900F9012
:10058000DF91CF910895009769F0FC010190002060
:10059000E9F73197AF01481B590BBC0188E392E0A2
:1005A0000C946E0180E090E00895CF93DF930E9459
:1005B000C302EC0182E491E00E94C3028C0F9D1FF4
:1005C000DF91CF9108950E942B091F920F920FB6D1
:1005D0000F9211242F933F934F935F936F937F93C9
:1005E0008F939F93AF93BF93CF93EF93FF93C0915C
:1005F0003702CC2321F0809136028823D1F08091FC
:100600003602882341F08091340291E0980F909354
:1006100034028823A9F080913402883010F01092BF
:100620003402CC2309F4DDC0409136024423E9F0C2
:10063000D8C0809100010E94C50180933502DFCFB0
:100640006091D5018AE00E94EE0160E08CE00E949A
:10065000EE0110923602809132029091330201969F
:100660009093330280933202D6CF80913502882353
:1006700029F0909131029F5F9093310220913002D6
:1006800090912F02821759F0903510F02DE101C0A2
:100690002BE0920F90932F028093300203C09C5E58
:1006A00090932F0290912F02903A08F49AC02091D3
:1006B0002D0230912E023695279530932E022093ED
:1006C0002D0280913102853028F0386030932E025F
:1006D00020932D02905A90932F0210923102809114
:1006E0002C02882309F46DC090912B029F5F909398
:1006F0002B029C3008F475C020912D0230912E02FF
:10070000822F8F73982F96959695987058E0590F71
:10071000591749F0E92FF0E0E05EFE4F608186173F
:1007200019F09F5FF5CF90E050E1959FC001112433
:1007300096E0369527959A95E1F7522F36952795AD
:1007400036952795287038E0320F321751F0E22F96
:10075000F0E0E05EFE4F6081561711F02F5FF5CF9D
:10076000422F842B90912A0291110EC0809329026E
:100770009CEF980F9D3440F010922C02809128023B
:100780008F5F809328022DC0E0912A0291E09E0F96
:1007900090932A02F0E0E852FE4F808390912A0263
:1007A00080912902981750F010922C028091D70165
:1007B0008F5F8093D70181E08093D60110922B0246
:1007C00010C080912D0290912E0288339B4049F4F5
:1007D00081E080932C0210922B0210922A02109238
:1007E000D601FF91EF91CF91BF91AF919F918F91E2
:1007F0007F916F915F914F913F912F910F900FBE1D
:100800000F901F9018951F920F920FB60F92112400
:100810002F933F934F935F936F937F938F939F9308
:10082000AF93BF93EF93FF9388E392E00E94D300CE
:10083000FF91EF91BF91AF919F918F917F916F91B8
:100840005F914F913F912F910F900FBE0F901F908E
:1008500018951F920F920FB60F9211242F938F931A
:100860009F93EF93FF93E0914802F09149028081BA
:10087000E0914E02F0914F0282FD12C09081809172
:1008800051028F5F8F7320915202821751F0E091D5
:100890005102F0E0E85CFD4F958F8093510201C05A
:1008A0008081FF91EF919F918F912F910F900FBEBB
:1008B0000F901F9018951F920F920FB60F92112450
:1008C0002F933F938F939F93AF93BF938091C901D1
:1008D0009091CA01A091CB01B091CC013091C80197
:1008E00023E0230F2D3720F40196A11DB11D05C073
:1008F00026E8230F0296A11DB11D2093C801809305
:10090000C9019093CA01A093CB01B093CC0180910F
:10091000CD019091CE01A091CF01B091D00101966F
:10092000A11DB11D8093CD019093CE01A093CF0165
:10093000B093D001BF91AF919F918F913F912F9133
:100940000F900FBE0F901F901895E8E3F2E013820E
:10095000128288EE93E0A0E0B0E084839583A683C2
:10096000B78384E391E09183808385EC90E0958761
:10097000848784EC90E09787868780EC90E0918B69
:10098000808B81EC90E0938B828B82EC90E0958B56
:10099000848B86EC90E0978B868B118E128E138E53
:1009A000148E84E090E00E94E2079093D602809338
:1009B000D5020895CF93DF93CDB7DEB76A970FB610
:1009C000F894DEBF0FBECDBF789484B5826084BD3D
:1009D00084B5816084BD85B5826085BD85B5816043
:1009E00085BD80916E00816080936E0010928100C1
:1009F000809181008260809381008091810081607C
:100A0000809381008091800081608093800080913C
:100A1000B10084608093B1008091B00081608093C8
:100A2000B00080917A00846080937A0080917A008F
:100A3000826080937A0080917A00816080937A004E
:100A400080917A00806880937A001092C100E091D2
:100A50004802F091490282E08083E0914402F091E3
:100A600045021082E0914602F09147028FEC8083AC
:100A700010925002E0914C02F0914D0286E080838A
:100A8000E0914A02F0914B02808180618083E09185
:100A90004A02F0914B02808188608083E0914A0293
:100AA000F0914B02808180688083E0914A02F0914E
:100AB0004B0280818F7D8083E091D502F091D60238
:100AC000118210821382128283EA90E00E94E20770
:100AD0007C01FC01E05BFF4F80E5808331961BE0E9
:100AE000108331968FE0808360E08BE00E941D02CE
:100AF00061E08BE00E941D0281E08093D50110939C
:100B000000018EE0E7E0F1E0DE01119601900D9228
:100B10008A95E1F76E0123E0C20ED11C11E0812C11
:100B200064E2962E64EFA62EB12C70E8472E7EE389
:100B3000572E612C712CD6012D913D916D0140E015
:100B400050E0C501B4010E940309CA01B901A30123
:100B500092010E940309223031054105510520F41C
:100B60001F5F173041F729C0163039F1112329F1E1
:100B70001092800088E08093810080918100182B82
:100B800010938100309389002093880080916F003A
:100B9000826080936F0061E08CE00E941D0260E043
:100BA000809100010E941D0261E08AE00E941D0206
:100BB0006091D5018AE00E94EE0180913702811197
:100BC00005C081E08093370210922C02F092D2018E
:100BD000E092D1018BE0E5E1F1E0DE011F960190AA
:100BE0000D928A95E1F78EE090E00E94E2078C0179
:100BF0008BE0FE013F96DE01119601900D928A95E1
:100C0000E1F78BE0FE013196D80101900D928A95B3
:100C1000E1F7F801F486E386158660E082E00E9441
:100C20001D0260E083E00E941D0260E084E00E94FB
:100C30001D0260E085E00E941D0260E086E00E94E7
:100C40001D0261E087E00E941D0261E088E00E94D1
:100C50001D0261E089E00E941D0261E08EE00E94B9
:100C60001D0261E08CE00E941D0260E080E10E94B4
:100C70001D021093D4010093D30190E5B92E23E017
:100C8000322EAA24A39434E0232E42E0542E55E0C1
:100C9000452E0091D3011091D401D8011B96ED90FF
:100CA000FC901C976701B0E5CB0ED11CF601B08219
:100CB0008091D601882309F452C080912A02835082
:100CC000803508F48083D6014C9150E069ED71E0E5
:100CD000C7010E9430091092D60120912A02E8ED46
:100CE000F1E08FEF9FEF215098F031918327082E8C
:100CF0008295807F8025092E982F82958F700826F7
:100D0000869598278927880F880F880F8025EBCF35
:100D1000883B904F21F54701E3E58E0E911CD401ED
:100D2000EB2D1D92EA95E9F7D6018C9190E0F70141
:100D30009F012E193F092817390734F42191DF014B
:100D4000AE5ABF4F2C93F4CF85E491E00E94C302CA
:100D50008DE491E00E94C302C4010E94D502F80113
:100D600084810E94C501019741F48FE491E00E94C3
:100D7000D502D8011D96AC920DC0F80183810E9466
:100D8000C501019739F481E591E00E94D502D801AF
:100D90001D963C92F8018585813041F484810E9442
:100DA000C501019719F089EB91E044C0F8018585F0
:100DB000833039F4D80113968C910E94C5010197B4
:100DC000B9F5F80181810E94C501019769F0D80148
:100DD0001B968D919C911C9763E571E08D5A9F4FF6
:100DE0000E943909892B61F5F8018585813041F12F
:100DF0008DEB91E00E94D502F8015586D80112963C
:100E00008C910E94C5010197C9F1F80183859485F1
:100E10006EE571E08D5A9F4F0E943909892B71F15F
:100E2000D8011D968C91823089F18430B9F52EC09D
:100E30008BEB91E00E94D502D8011D961C92C1CF88
:100E4000D8018C910E94C501019769F0D8011B96C9
:100E50008D919C911C9768E571E08D5A9F4F0E947F
:100E60003909892B59F6F8018585833039F28FEBE2
:100E700091E00E94D502F8012586C0CF81EC91E077
:100E80000E94D502D8011D964C92CACF83EC91E006
:100E90000E94D50261E0F801818508C085EC91E0EF
:100EA0000E94D50260E0D80119968C910E94EE0153
:100EB000F8018585833001F158F48130A9F0823042
:100EC00099F581E791E00E94D5021F86AA8E22C083
:100ED0008430D1F0853041F58AE991E00E94D50255
:100EE000C8010E94AF0227C083E691E00E94D502AC
:100EF000C8010E94AF021FC08FE791E00E94D50297
:100F0000C8010E94AF0217C08CE891E00E94D50290
:100F1000AF861A8EAE01415F5F4FBE01665E7F4FA6
:100F2000C8010E947E0207C088EA91E00E94D502B3
:100F3000C8010E94AF02D8011D968C91823031F019
:100F4000843021F060E0F801858104C061E0D801BF
:100F500015968C910E94EE01D8011B96ED91FC91A3
:100F60001C97ED5AFF4FDF012B2D1D922A95E9F7B3
:100F70000E9459023B014C0180EDC82E87E0D82E1B
:100F8000E12CF12C0E945902DC01CB018619970952
:100F9000A809B909883E9340A105B10598F381E0FD
:100FA000C81AD108E108F108A8EE6A0EA3E07A1E7B
:100FB000811C911CC114D104E104F10419F70E94B1
:100FC000640167CE0F931F93CF93DF938230910517
:100FD00010F482E090E0E091D902F091DA0220E092
:100FE00030E0A0E0B0E0309719F1408151810281FA
:100FF000138148175907C8F08417950769F41097AB
:1010000031F012960C93129713961C9327C00093FD
:10101000D9021093DA0222C02115310519F04217C6
:10102000530718F49A01BD01EF01DF01F801DBCF8E
:1010300021153105F9F0281B390B2430310580F4D6
:101040008A819B816115710521F0FB019383828365
:1010500004C09093DA028093D902FE01329644C014
:10106000FE01E20FF31F81939193225031093983DE
:1010700028833AC02091D7023091D802232B41F423
:1010800020910301309104013093D8022093D702BC
:1010900020910101309102012115310541F42DB754
:1010A0003EB74091050150910601241B350BE0919C
:1010B000D702F091D802E217F307A0F42E1B3F0BE2
:1010C0002817390778F0AC014E5F5F4F24173507BA
:1010D00048F04E0F5F1F5093D8024093D702819380
:1010E000919302C0E0E0F0E0CF01DF91CF911F913A
:1010F0000F910895CF93DF93009709F481C0FC010D
:10110000329713821282A091D902B091DA0210971D
:1011100081F420813181820F931F2091D702309179
:10112000D8022817390751F5F093D802E093D70277
:1011300067C0ED0120E030E0CE17DF0740F44A81C0
:101140005B819E0141155105F1F0EA01F5CFD38392
:10115000C28340815181840F951FC817D90759F464
:1011600088819981840F951F0296918380838A815B
:101170009B81938382832115310529F4F093DA0250
:10118000E093D9023DC0E901FB83EA83499159917B
:10119000C40FD51FEC17FD0761F480819181840F86
:1011A000951F0296E90199838883828193819B83AD
:1011B0008A83E0E0F0E012968D919C91139700975E
:1011C00019F0FD01DC01F7CF8D919C9111979D01E4
:1011D0002E5F3F4F820F931F2091D7023091D8028C
:1011E0002817390769F4309729F41092DA0210921F
:1011F000D90202C013821282B093D802A093D70200
:10120000DF91CF910895A1E21A2EAA1BBB1BFD010D
:101210000DC0AA1FBB1FEE1FFF1FA217B307E407D5
:10122000F50720F0A21BB30BE40BF50B661F771F2D
:10123000881F991F1A9469F760957095809590950D
:101240009B01AC01BD01CF010895EE0FFF1F05907A
:10125000F491E02D099481E090E0F8940C94420917
:10126000FB01DC0102C001900D9241505040D8F7C3
:101270000895FB01DC018D91019080190110D9F3D3
:08128000990B0895F894FFCFCB
:101288000B0000DB028000000001000800400000A5
:10129800010004050D02030405060708090E0C10D9
:1012A8000D0E131516191A1C232526292A2C32343B
:1012B80000000000F5006E018C004201BD009B009B
:1012C800AF000D0A00636F6D6D616E640020003120
:1012D8000032006F70656E00636C6F736500737425
:1012E8006F700053544154455F4F50454E4E45442E
:1012F8000053544154455F4F50454E494E470053A3
:10130800544154455F434C4F534544005354415452
:10131800455F434C4F53494E470053544154455F32
:1013280053544F505045440053544154455F494E1F
:10133800444546494E49544500330034003500368B
:081348000037003800390000F5
:00000001FF
