:100000000C9462000C948A000C948A000C948A0070
:100010000C948A000C948A000C948A000C948A0038
:100020000C948A000C948A000C948A000C948A0028
:100030000C948A000C9481030C948A000C948A001E
:100040000C9437030C948A000C9405030C94DF0283
:100050000C948A000C948A000C948A000C948A00F8
:100060000C948A000C948A000000000024002700F1
:100070002A0000000000250028002B0000000000DE
:1000800023002600290004040404040404040202DA
:100090000202020203030303030301020408102007
:1000A0004080010204081020010204081020000012
:1000B0000008000201000003040700000000000027
:1000C0000000D10411241FBECFEFD8E0DEBFCDBFAA
:1000D00012E0A0E0B1E0EAE4FDE002C005900D927C
:1000E000A035B107D9F724E0A0E5B2E001C01D9228
:1000F000A13CB207E1F710E0C2E6D0E004C02197CE
:10010000FE010E949D06C136D107C9F70E943D0538
:100110000C94A3060C940000AF92BF92CF92DF9292
:10012000EF92FF920F931F93CF93DF936C017B01AC
:100130008B01040F151FEB015E01AE18BF08C0173D
:10014000D10759F06991D601ED91FC910190F081B0
:10015000E02DC6010995892B79F7C501DF91CF9173
:100160001F910F91FF90EF90DF90CF90BF90AF90D5
:100170000895FC01538D448D252F30E0842F90E0AD
:10018000821B930B541710F0CF9608950197089592
:10019000FC01918D828D981761F0A28DAE0FBF2F5B
:1001A000B11D5D968C91928D9F5F9F73928F90E0B1
:1001B00008958FEF9FEF0895FC01918D828D981720
:1001C00031F0828DE80FF11D858D90E008958FEF5D
:1001D0009FEF0895FC01918D228D892F90E0805C26
:1001E0009F4F821B91098F739927089589E592E0AB
:1001F0000E94EA0021E0892B09F420E0822F089573
:1002000080E090E0892B29F00E94F60081110C9487
:1002100000000895FC01A48DA80FB92FB11DA35AA9
:10022000BF4F2C91848D90E001968F739927848F16
:10023000A689B7892C93A089B1898C918370806439
:100240008C93938D848D981306C00288F389E02DDA
:1002500080818F7D80830895EF92FF920F931F938B
:10026000CF93DF93EC0181E0888F9B8D8C8D981369
:100270001AC0E889F989808185FF15C09FB7F89475
:10028000EE89FF896083E889F989808183708064C1
:1002900080839FBF81E090E0DF91CF911F910F910C
:1002A000FF90EF900895F62E0B8D10E00F5F1F4F1B
:1002B0000F731127E02E8C8D8E110CC00FB607FC2A
:1002C000FACFE889F989808185FFF5CFCE010E94B8
:1002D0000A01F1CFEB8DEC0FFD2FF11DE35AFF4F1B
:1002E000F0829FB7F8940B8FEA89FB898081806246
:1002F000CFCFCF93DF93EC01888D8823B9F0AA8903
:10030000BB89E889F9898C9185FD03C0808186FDD0
:100310000DC00FB607FCF7CF8C9185FFF2CF80811F
:1003200085FFEDCFCE010E940A01E9CFDF91CF9189
:1003300008953FB7F8948091510290915202A09194
:100340005302B091540226B5A89B05C02F3F19F067
:100350000196A11DB11D3FBFBA2FA92F982F882745
:10036000BC01CD01620F711D811D911D42E0660F20
:10037000771F881F991F4A95D1F70895833081F020
:1003800028F4813099F08230A9F008958730A9F0DF
:100390008830C9F08430B1F4809180008F7D03C033
:1003A000809180008F7780938000089584B58F7747
:1003B00084BD089584B58F7DFBCF8091B0008F7789
:1003C0008093B00008958091B0008F7DF9CFCF93D6
:1003D000DF93282F30E0F901E255FF4F8491F901B6
:1003E000E656FF4FD491F901EA57FF4FC491CC2351
:1003F000A1F081110E94BE01EC2FF0E0EE0FFF1F73
:10040000E458FF4FA591B491EC91ED2381E090E089
:1004100009F480E0DF91CF91089580E090E0FACF79
:100420008091FA020E94E7019093FD028093FC0202
:100430000E9499016093FE027093FF028093000373
:10044000909301038FEF9FEF909397038093960310
:100450008EE68093980381E08093BD048093BE0470
:100460008093BF048093C004209102033091030362
:10047000E4E0F3E090E080E08217930724F4119227
:1004800011920196F9CF08951F93CF93DF93282FF0
:1004900030E0F901E255FF4F8491F901E656FF4F34
:1004A000D491F901EA57FF4FC491CC23A9F0162F3C
:1004B00081110E94BE01EC2FF0E0EE0FFF1FEE58FD
:1004C000FF4FA591B4918FB7F894EC91111108C02A
:1004D000D095DE23DC938FBFDF91CF911F910895DC
:1004E000DE2BF8CFCF93DF9390E0FC01E656FF4F71
:1004F00024918A579F4FFC0184918823C9F090E092
:10050000880F991FFC01E859FF4FA591B491FC0198
:10051000EE58FF4FC591D49161110DC09FB7F8946B
:100520008C91209582238C938881282328839FBFD8
:10053000DF91CF910895623051F49FB7F8943C91C8
:10054000822F809583238C93E8812E2BEFCF8FB75A
:10055000F894EC912E2B2C938FBFEACF1F93CF935F
:10056000DF93C82FD62F142F61E00E947202612FF3
:100570008C2F0E9444026D2F8C2FDF91CF911F9101
:100580000C947202CF93DF93FC0101900020E9F7F5
:100590003197AF01481B590BBC0189E592E00E94DD
:1005A0008C00EC0142E050E066E372E089E592E005
:1005B0000E948C008C0F9D1FDF91CF9108951F9298
:1005C0000F920FB60F9211242F933F934F935F9387
:1005D0006F937F938F939F93AF93BF93EF93FF930B
:1005E00089E592E00E940A01FF91EF91BF91AF91DE
:1005F0009F918F917F916F915F914F913F912F913B
:100600000F900FBE0F901F9018951F920F920FB66C
:100610000F9211242F938F939F93EF93FF93E09169
:100620006902F0916A028081E0916F02F09170029C
:1006300082FD1BC09081809172028F5F8F73209129
:100640007302821741F0E0917202F0E0E75AFD4F29
:10065000958F80937202FF91EF919F918F912F91CF
:100660000F900FBE0F901F9018958081F4CF1F92AE
:100670000F920FB60F9211242F933F938F939F9356
:10068000AF93BF938091F6029091F702A091F80288
:10069000B091F9023091500223E0230F2D3758F525
:1006A0000196A11DB11D209350028093F6029093F4
:1006B000F702A093F802B093F90280915102909151
:1006C0005202A0915302B09154020196A11DB11D96
:1006D0008093510290935202A0935302B09354021C
:1006E000BF91AF919F918F913F912F910F900FBE2E
:1006F0000F901F90189526E8230F0296A11DB11D9B
:10070000D2CF1F920F920FB60F9211240F931F9307
:100710002F933F934F935F936F937F938F939F9309
:10072000AF93BF93CF93DF93EF93FF9380915502E5
:100730009091560290938500809384008091980355
:100740008E3609F043C08091FA020E94E701EC0165
:100750008091FC029091FD02C817D907B9F10E945F
:100760009901AB01BC018091FE029091FF02A09122
:100770000003B09101038A019B01081B190B2A0B8E
:100780003B0BD901C801D093FD02C093FC024093FA
:10079000FE025093FF026093000370930103A801CF
:1007A000B9014F5551406109710943365105610541
:1007B000710508F18D549440A109B109873C910558
:1007C000A105B10508F4BAC00E941002FF91EF9193
:1007D000DF91CF91BF91AF919F918F917F916F9159
:1007E0005F914F913F912F911F910F910F900FBEED
:1007F0000F901F90189580919603909197039C01FC
:100800002F5F3F4F3093970320939603880F991FD4
:10081000FC01EA5FFC4F81E090E0CD2B11F090E00D
:1008200080E0918380838091BD048823B9F080911A
:10083000960390919703FC01E756FC4F2081022E0E
:10084000000C330B880F991FFC01EC5FFC4F80817B
:1008500091812817390711F01092BD048091BE04D0
:100860008823B9F08091960390919703FC01EE5193
:10087000FC4F2081022E000C330B880F991FFC01C6
:10088000EC5FFC4F808191812817390711F010929D
:10089000BE048091BF048823B9F0809196039091A3
:1008A0009703FC01E55DFB4F2081022E000C330B0A
:1008B000880F991FFC01EC5FFC4F80819181281704
:1008C000390711F01092BF048091C0048823B9F059
:1008D0008091960390919703FC01EC58FB4F208187
:1008E000022E000C330B880F991FFC01EC5FFC4FAC
:1008F000808191812817390711F01092C0048091EE
:10090000BD0481110DC09091BE04911109C0909158
:10091000BF04911105C09091C004992309F454CFEC
:100920002091960330919703283431050CF44ECF73
:10093000882321F181E68093980348CF8091960324
:100940009091970321E030E0CD2B11F030E020E0D2
:10095000FC01EE0FFF1FEA5FFC4F31832083AC01E7
:100960004E5F5F4F5093970340939603880F991FF4
:10097000FC01E85FFC4F3183208355CF8091BE049A
:10098000882311F082E6D7CF8091BF04882311F02D
:1009900083E6D1CF8091C004882309F417CF84E681
:1009A000CACFCF93DF93E9E5F2E01382128288EE9B
:1009B00093E0A0E0B0E084839583A683B78388E2C8
:1009C00092E09183808385EC90E09587848784EC26
:1009D00090E09787868780EC90E0918B808B81EC0C
:1009E00090E0938B828B82EC90E0958B848B86ECED
:1009F00090E0978B868B118E128E138E148E8FB78C
:100A0000F8944091F6025091F7026091F8027091CB
:100A1000F9028FBFCAEFD2E01B821A8289E490E00C
:100A200099878887E0E0F1E0A9E9B3E001900D92B1
:100A30008A95E1F789E4E9E4F1E0A2EEB3E0019000
:100A40000D928A95E1F789E4E2E9F1E0ABE2B4E0E6
:100A500001900D928A95E1F789E4EBEDF1E0A4E7CE
:100A6000B4E001900D928A95E1F78BE090E09983D4
:100A70008883DF91CF910C949901789484B582603A
:100A800084BD84B5816084BD85B5826085BD85B532
:100A9000816085BD80916E00816080936E001092B0
:100AA000810080918100826080938100809181002B
:100AB00081608093810080918000816080938000BC
:100AC0008091B10084608093B1008091B00081601A
:100AD0008093B00080917A00846080937A00809146
:100AE0007A00826080937A0080917A00816080939E
:100AF0007A0080917A00806880937A001092C10019
:100B0000E0916902F0916A0282E08083E0916502DF
:100B1000F09166021082E0916702F09168028FEC1A
:100B2000808310927102E0916D02F0916E0286E076
:100B30008083E0916B02F0916C0280818061808300
:100B4000E0916B02F0916C02808188608083E0917B
:100B50006B02F0916C02808180688083E0916B026F
:100B6000F0916C0280818F7D808389E392E00E9406
:100B7000C20262E082E00E94720262E08CE00E94A7
:100B8000720262E084E00E94720262E085E00E94EC
:100B9000720262E086E00E94720240E061E087E05B
:100BA0000E94AE0240E061E088E00E94AE0241E0B7
:100BB00060E089E00E94AE0240E061E08AE00E94CD
:100BC000AE0240E060E08BE00E94AE0281E08093E4
:100BD0005802809357020E941002F89410928000ED
:100BE000109281008CEF9FEF9093560280935502F4
:100BF000909385008093840080918100826080932F
:100C000081008091810081608093810080916F00DC
:100C1000816080936F00789400E010E0D3E0FF24BF
:100C2000F39485E00E94E701019709F049C082E052
:100C30000E94E701892B39F080919803813609F0F1
:100C40003FC00E94100282E08093580284E00E941C
:100C5000E701C0915702892B41F080919803835698
:100C6000823008F041C00E941002F0925802809138
:100C700058028C1799F0813009F044C060E087E099
:100C80000E94440260E088E00E9444028FE392E008
:100C90000E94C2028091580280935702809198036B
:100CA0008E3611F00E9410020115110509F4B9CF1A
:100CB0000E94F600882309F4B4CF0E940000B1CF4F
:100CC00086E00E94E701019709F68CE00E94E701A7
:100CD000892B39F080919803823609F0B7CF0E94B2
:100CE0001002D0935802B2CFC23039F485E00E948E
:100CF000E701892B09F4B9CFBACFC33009F0B7CFD8
:100D000086E0F5CF823059F461E087E00E9444022A
:100D100060E088E00E94440284E492E0B9CF83302E
:100D200009F0B8CF60E087E00E94440261E088E00B
:100D30000E94440289E492E0ABCFEE0FFF1F0590C2
:0A0D4000F491E02D0994F894FFCF20
:100D4A000101000100000100000101000100000191
:100D5A000100010100010000010100010000010081
:100D6A000001010001000001000001000001000073
:100D7A000100000101000100000101000100000161
:100D8A000100010000010000010101000100000151
:100D9A000000010100010000010100010100010041
:100DAA000001010001000001000001010001000032
:100DBA000100000100000100000100000101000122
:100DCA000000010100010100010000010000010012
:100DDA000001010100010000010000010100010001
:100DEA0000010100010100010000010100010000F1
:100DFA0001000001010001000001000001000001E2
:100E0A0000000100000101000100000101000100D1
:100E1A0000010000010000010100010101000100C0
:100E2A0000010000010100010000010100010100B0
:100E3A0001000001010001000001000001010001A0
:100E4A000000010000010000010000010000010192
:100E5A000001000001010001000001000001010081
:100E6A0001000001000000002C018C00B90079018A
:100E7A00EA00C800DC000D0A00736574757000731F
:100E8A00746F70006F70656E00636C6F736500003D
:00000001FF
