:100000000C9462000C948A000C948A000C948A0070
:100010000C948A000C948A000C948A000C948A0038
:100020000C948A000C948A000C948A000C94160399
:100030000C948A000C948A000C948A000C948A0018
:100040000C94CC020C948A000C949A020C947402C6
:100050000C948A000C948A000C948A000C948A00F8
:100060000C948A000C948A000000000023002600F3
:10007000290000000008000201000003040700003E
:1000800000000000000000000000250028002B00F8
:1000900000000000240027002A00040404040404D3
:1000A0000404020202020202030303030303010227
:1000B00004081020408001020408102001020408F6
:1000C00010205D0311241FBECFEFD8E0DEBFCDBFEF
:1000D00011E0A0E0B1E0E0E1FBE002C005900D928C
:1000E000AA32B107D9F723E0AAE2B1E001C01D921C
:1000F000AD30B207E1F710E0C2E6D0E004C02197CE
:10010000FE010E948005C136D107C9F70E949F03F6
:100110000C9486050C940000AF92BF92CF92DF92B0
:10012000EF92FF920F931F93CF93DF936C017B01AC
:100130008B01040F151FEB015E01AE18BF08C0173D
:10014000D10759F06991D601ED91FC910190F081B0
:10015000E02DC6010995892B79F7C501DF91CF9173
:100160001F910F91FF90EF90DF90CF90BF90AF90D5
:100170000895FC01538D448D252F30E0842F90E0AD
:10018000821B930B541710F0CF9608950197089592
:10019000FC01918D828D981761F0A28DAE0FBF2F5B
:1001A000B11D5D968C91928D9F5F9F73928F90E0B1
:1001B00008958FEF9FEF0895FC01918D828D981720
:1001C00031F0828DE80FF11D858D90E008958FEF5D
:1001D0009FEF0895FC01918D228D892F90E0805C26
:1001E0009F4F821B91098F739927089585E391E0B2
:1001F0000E94EA0021E0892B09F420E0822F089573
:1002000080E090E0892B29F00E94F60081110C9487
:1002100000000895FC01A48DA80FB92FB11DA35AA9
:10022000BF4F2C91848D90E001968F739927848F16
:10023000A689B7892C93A089B1898C918370806439
:100240008C93938D848D981306C00288F389E02DDA
:1002500080818F7D80830895EF92FF920F931F938B
:10026000CF93DF93EC0181E0888F9B8D8C8D981369
:100270001AC0E889F989808185FF15C09FB7F89475
:10028000EE89FF896083E889F989808183708064C1
:1002900080839FBF81E090E0DF91CF911F910F910C
:1002A000FF90EF900895F62E0B8D10E00F5F1F4F1B
:1002B0000F731127E02E8C8D8E110CC00FB607FC2A
:1002C000FACFE889F989808185FFF5CFCE010E94B8
:1002D0000A01F1CFEB8DEC0FFD2FF11DE35AFF4F1B
:1002E000F0829FB7F8940B8FEA89FB898081806246
:1002F000CFCFCF93DF93EC01888D8823B9F0AA8903
:10030000BB89E889F9898C9185FD03C0808186FDD0
:100310000DC00FB607FCF7CF8C9185FFF2CF80811F
:1003200085FFEDCFCE010E940A01E9CFDF91CF9189
:1003300008953FB7F8948091310190913201A091D6
:100340003301B091340126B5A89B05C02F3F19F0A9
:100350000196A11DB11D3FBFBA2FA92F982F882745
:10036000BC01CD01620F711D811D911D42E0660F20
:10037000771F881F991F4A95D1F70895833081F020
:1003800028F4813099F08230A9F008958730A9F0DF
:100390008830C9F08430B1F4809180008F7D03C033
:1003A000809180008F7780938000089584B58F7747
:1003B00084BD089584B58F7DFBCF8091B0008F7789
:1003C0008093B00008958091B0008F7DF9CFCF93D6
:1003D000DF93282F30E0F901EE58FF4F8491F901A7
:1003E000E255FF4FD491F901E656FF4FC491CC235B
:1003F000A1F081110E94BE01EC2FF0E0EE0FFF1F73
:10040000E859FF4FA591B491EC91ED2381E090E084
:1004100009F480E0DF91CF91089580E090E0FACF79
:100420008BE00E94E7019093D7018093D6010E9450
:1004300099016093090370930A0380930B039093CF
:100440000C03109208038FEF9FEF909307038093A4
:1004500006032091D8013091D901EAEDF1E090E056
:1004600080E08217930724F4119211920196F9CF3C
:1004700008951F93CF93DF93282F30E0F901EE58B2
:10048000FF4F8491F901E255FF4FD491F901E656EF
:10049000FF4FC491CC23A9F0162F81110E94BE01F9
:1004A000EC2FF0E0EE0FFF1FEA57FF4FA591B4913C
:1004B0008FB7F894EC91111108C0D095DE23DC932E
:1004C0008FBFDF91CF911F910895DE2BF8CFFC01F4
:1004D00001900020E9F73197AF01481B590BBC018F
:1004E00085E391E00C948C001F920F920FB60F924F
:1004F00011242F933F934F935F936F937F938F9329
:100500009F93AF93BF93EF93FF9385E391E00E9496
:100510000A01FF91EF91BF91AF919F918F917F91D0
:100520006F915F914F913F912F910F900FBE0F9060
:100530001F9018951F920F920FB60F9211242F93B0
:100540008F939F93EF93FF93E0914501F0914601C4
:100550008081E0914B01F0914C0182FD1BC09081A4
:1005600080914E018F5F8F7320914F01821741F070
:10057000E0914E01F0E0EB5CFE4F958F80934E01D1
:10058000FF91EF919F918F912F910F900FBE0F9040
:100590001F9018958081F4CF1F920F920FB60F9283
:1005A00011242F933F938F939F93AF93BF93809189
:1005B000D2019091D301A091D401B091D501309195
:1005C000300123E0230F2D3758F50196A11DB11DF1
:1005D000209330018093D2019093D301A093D40152
:1005E000B093D5018091310190913201A0913301F6
:1005F000B09134010196A11DB11D809331019093FA
:100600003201A0933301B0933401BF91AF919F9118
:100610008F913F912F910F900FBE0F901F901895C3
:1006200026E8230F0296A11DB11DD2CF1F920F9273
:100630000FB60F9211242F933F934F935F936F93B5
:100640007F938F939F93AF93BF93EF93FF9380918B
:100650002F018823D9F080912E0191E0980F90937B
:100660002E01811113C060E08AE00E94390260E02F
:100670008CE00E94390210922F0180912C01909100
:100680002D01019690932D0180932C0180912E01D4
:10069000883010F010922E01FF91EF91BF91AF9131
:1006A0009F918F917F916F915F914F913F912F918A
:1006B0000F900FBE0F901F901895E5E3F1E01382A5
:1006C000128288EE93E0A0E0B0E084839583A68355
:1006D000B78384E091E09183808385EC90E09587F7
:1006E000848784EC90E09787868780EC90E0918BFC
:1006F000808B81EC90E0938B828B82EC90E0958BE9
:10070000848B86EC90E0978B868B118E128E138EE5
:10071000148E8FB7F8944091D2015091D30160911B
:10072000D4017091D5018FBFE6EDF1E01182108206
:1007300086E990E093838283109208030895CF9313
:10074000DF93CDB7DEB7A1970FB6F894DEBF0FBE2B
:10075000CDBF789484B5826084BD84B5816084BD4A
:1007600085B5826085BD85B5816085BD80916E004F
:10077000816080936E001092810080918100826080
:1007800080938100809181008160809381008091BD
:1007900080008160809380008091B10084608093AC
:1007A000B1008091B00081608093B00080917A00A8
:1007B000846080937A0080917A00826080937A00CE
:1007C00080917A00816080937A0080917A008068BD
:1007D00080937A001092C100E0914501F0914601AA
:1007E00082E08083E0914101F09142011082E0912A
:1007F0004301F09144018FEC808310924D01E09110
:100800004901F0914A0186E08083E0914701F0912F
:100810004801808180618083E0914701F091480127
:10082000808188608083E0914701F0914801808158
:1008300080688083E0914701F091480180818F7D3D
:10084000808382E191E00E94670288E191E00E944A
:100850006702E9EBF0E02491E5EAF0E08491882377
:10086000C9F090E0880F991FFC01E057FF4F4591B8
:100870005491FC01EA57FF4FA591B4919FB7F894AA
:10088000FA0180812095822380838C91E22FE823D6
:10089000EC939FBF0E9410025AE0452E512C612C10
:1008A000712C60E0262E60E0362E809108038111C5
:1008B00034C08BE00E94E7018C018091D6019091B9
:1008C000D7010817190729F10E949901C09009035F
:1008D000D0900A03E0900B03F0900C034B015C01F5
:1008E0008C189D08AE08BF081093D7010093D6015D
:1008F0006093090370930A0380930B0390930C0396
:10090000FEE58F16F1E09F06A104B10450F50E94A8
:100910001002809108038823C1F00AED11E0F8016C
:10092000819191918F01892B09F4C5C085E291E0F5
:100930000E94670282EA92E08017910781F788E1BE
:1009400091E00E9467020E9410022114310409F410
:10095000ACCF0E94F600882309F4A7CF0E940000C4
:10096000A4CFC501B4012EE531E040E050E00E9483
:100970005E0579018BE191E00E94670219A26E0188
:1009800021E2C20ED11CC501B401A30192010E9453
:100990005E0549015A01605DF60162936F018114A1
:1009A0009104A104B10479F7309719F0CF010E94A6
:1009B000670288E191E00E946702809106039091AE
:1009C0000703F1E0EF16F104D1F49C012F5F3F4FD4
:1009D0003093070320930603880F991FFC01E4520C
:1009E000FE4F1183008380910603909107038437A3
:1009F00091050CF48ECF21E0209308038ACF22E0EA
:100A0000E216F10491F4FC01EE0FFF1FE452FE4FD9
:100A10001183008302969093070380930603880F47
:100A2000991FFC01E652FE4FDCCFE3E0EE16F10425
:100A3000D9F49C012D5F3F4FF901EE0FFF1FEA52E1
:100A4000FE4F11830083FC01EE0FFF1FE252FE4FA9
:100A5000118300833093070320930603880F991FA7
:100A6000FC01E052FE4FBDCFF4E0EF16F10409F0B7
:100A7000BACFFC01EE0FFF1FE452FE4F118300833B
:100A80009C012C5F3F4FF901EE0FFF1FEA52FE4F12
:100A900011830083FC01EE0FFF1FE052FE4F118314
:100AA00000833093070320930603880F991FFC01EE
:100AB000EE51FE4F96CF87E291E03ACFA1E21A2E97
:100AC000AA1BBB1BFD010DC0AA1FBB1FEE1FFF1FF2
:100AD000A217B307E407F50720F0A21BB30BE40B42
:100AE000F50B661F771F881F991F1A9469F7609589
:100AF0007095809590959B01AC01BD01CF01089543
:100B0000EE0FFF1F0590F491E02D0994F894FFCFAC
:100B1000000000002C018C00B9007901EA00C80037
:100B2000DC007365747570000D0A0064656C746197
:0A0B3000202D3E20003100300000AF
:00000001FF
