:100000000C9462000C948A000C948A000C948A0070
:100010000C948A000C948A000C948A000C948A0038
:100020000C948A000C948A000C948A000C948A0028
:100030000C948A000C9404040C948A000C948A009A
:100040000C94BA030C948A000C9488030C946203F9
:100050000C948A000C948A000C948A000C948A00F8
:100060000C948A000C948A000000000024002700F1
:100070002A0000000000250028002B0000000000DE
:1000800023002600290004040404040404040202DA
:100090000202020203030303030301020408102007
:1000A0004080010204081020010204081020000012
:1000B0000008000201000003040700000000000027
:1000C0000000540511241FBECFEFD8E0DEBFCDBF26
:1000D00012E0A0E0B1E0E4EEFEE002C005900D9277
:1000E000A638B107D9F724E0A6E8B2E001C01D9216
:1000F000A73FB207E1F710E0C2E6D0E004C02197C5
:10010000FE010E946A07C136D107C9F70E94C005E7
:100110000C9470070C940000AF92BF92CF92DF92C4
:10012000EF92FF920F931F93CF93DF936C017B01AC
:100130008B01040F151FEB015E01AE18BF08C0173D
:10014000D10759F06991D601ED91FC910190F081B0
:10015000E02DC6010995892B79F7C501DF91CF9173
:100160001F910F91FF90EF90DF90CF90BF90AF90D5
:100170000895FC01538D448D252F30E0842F90E0AD
:10018000821B930B541710F0CF9608950197089592
:10019000FC01918D828D981761F0A28DAE0FBF2F5B
:1001A000B11D5D968C91928D9F5F9F73928F90E0B1
:1001B00008958FEF9FEF0895FC01918D828D981720
:1001C00031F0828DE80FF11D858D90E008958FEF5D
:1001D0009FEF0895FC01918D228D892F90E0805C26
:1001E0009F4F821B91098F73992708958FE892E0A2
:1001F0000E94EA0021E0892B09F420E0822F089573
:1002000080E090E0892B29F00E94F60081110C9487
:1002100000000895FC01A48DA80FB92FB11DA35AA9
:10022000BF4F2C91848D90E001968F739927848F16
:10023000A689B7892C93A089B1898C918370806439
:100240008C93938D848D981306C00288F389E02DDA
:1002500080818F7D80830895EF92FF920F931F938B
:10026000CF93DF93EC0181E0888F9B8D8C8D981369
:100270001AC0E889F989808185FF15C09FB7F89475
:10028000EE89FF896083E889F989808183708064C1
:1002900080839FBF81E090E0DF91CF911F910F910C
:1002A000FF90EF900895F62E0B8D10E00F5F1F4F1B
:1002B0000F731127E02E8C8D8E110CC00FB607FC2A
:1002C000FACFE889F989808185FFF5CFCE010E94B8
:1002D0000A01F1CFEB8DEC0FFD2FF11DE35AFF4F1B
:1002E000F0829FB7F8940B8FEA89FB898081806246
:1002F000CFCFCF93DF93EC01888D8823B9F0AA8903
:10030000BB89E889F9898C9185FD03C0808186FDD0
:100310000DC00FB607FCF7CF8C9185FFF2CF80811F
:1003200085FFEDCFCE010E940A01E9CFDF91CF9189
:1003300008953FB7F8948091870290918802A09128
:100340008902B0918A0226B5A89B05C02F3F19F0FB
:100350000196A11DB11D3FBFBA2FA92F982F882745
:10036000BC01CD01620F711D811D911D42E0660F20
:10037000771F881F991F4A95D1F70895833081F020
:1003800028F4813099F08230A9F008958730A9F0DF
:100390008830C9F08430B1F4809180008F7D03C033
:1003A000809180008F7780938000089584B58F7747
:1003B00084BD089584B58F7DFBCF8091B0008F7789
:1003C0008093B00008958091B0008F7DF9CFCF93D6
:1003D000DF93282F30E0F901E255FF4F8491F901B6
:1003E000E656FF4FD491F901EA57FF4FC491CC2351
:1003F000A1F081110E94BE01EC2FF0E0EE0FFF1F73
:10040000E458FF4FA591B491EC91ED2381E090E089
:1004100009F480E0DF91CF91089580E090E0FACF79
:10042000809130030E94E70190933303809332035D
:100430000E949901609334037093350380933603CF
:10044000909337038FEF9FEF9093CD038093CC036E
:100450008EE68093CE0381E08093F3048093F404CE
:100460008093F5048093F60420913803309139038A
:10047000EAE3F3E090E080E08217930724F411921E
:1004800011920196F9CF08951F93CF93DF93282FF0
:1004900030E0F901E255FF4F8491F901E656FF4F34
:1004A000D491F901EA57FF4FC491CC23A9F0162F3C
:1004B00081110E94BE01EC2FF0E0EE0FFF1FEE58FD
:1004C000FF4FA591B4918FB7F894EC91111108C02A
:1004D000D095DE23DC938FBFDF91CF911F910895DC
:1004E000DE2BF8CFCF93DF9390E0FC01E656FF4F71
:1004F00024918A579F4FFC0184918823C9F090E092
:10050000880F991FFC01E859FF4FA591B491FC0198
:10051000EE58FF4FC591D49161110DC09FB7F8946B
:100520008C91209582238C938881282328839FBFD8
:10053000DF91CF910895623051F49FB7F8943C91C8
:10054000822F809583238C93E8812E2BEFCF8FB75A
:10055000F894EC912E2B2C938FBFEACF1F93CF935F
:10056000DF93C82FD62F142F61E00E947202612FF3
:100570008C2F0E9444026D2F8C2FDF91CF911F9101
:100580000C947202FC0101900020E9F73197AF0151
:10059000481B590BBC018FE892E00C948C00CF9360
:1005A000DF930E94C202EC0186E392E00E94C20245
:1005B0008C0F9D1FDF91CF9108958F929F92AF92E4
:1005C000BF92CF92DF92EF92FF920F931F93CF9340
:1005D000DF93CDB7DEB7A1970FB6F894DEBF0FBE9D
:1005E000CDBF6C01990FEE08FF08F7FE47C06DE222
:1005F0008FE892E00E942C018C0122273327A90169
:100600002C193D094E095F0919A2CE0181967C0182
:100610009AE0892E912CA12CB12CCA01B901A50117
:1006200094010E944807605DF70162937F012115E4
:1006300031054105510589F790E080E0309719F0C8
:10064000CF010E94C202080F191F86E392E00E94A8
:10065000C202800F911FA1960FB6F894DEBF0FBEA5
:10066000CDBFDF91CF911F910F91FF90EF90DF9061
:10067000CF90BF90AF909F908F900895A701960163
:1006800019A28E010F5D1F4F8AE0C82ED12CE12CDC
:10069000F12CCA01B901A70196010E944807605DCB
:1006A000F80162938F01211531054105510589F744
:1006B000309729F0CF010E94C2028C01C6CF10E012
:1006C00000E0C3CF1F920F920FB60F9211242F9309
:1006D0003F934F935F936F937F938F939F93AF93CA
:1006E000BF93EF93FF938FE892E00E940A01FF917E
:1006F000EF91BF91AF919F918F917F916F915F919A
:100700004F913F912F910F900FBE0F901F90189512
:100710001F920F920FB60F9211242F938F939F93D6
:10072000EF93FF93E0919F02F091A0028081E0910E
:10073000A502F091A60282FD1BC090818091A802C3
:100740008F5F8F732091A902821741F0E091A80278
:10075000F0E0E157FD4F958F8093A802FF91EF9154
:100760009F918F912F910F900FBE0F901F90189512
:100770008081F4CF1F920F920FB60F9211242F9306
:100780003F938F939F93AF93BF9380912C0390914E
:100790002D03A0912E03B0912F033091860223E008
:1007A000230F2D3758F50196A11DB11D2093860208
:1007B00080932C0390932D03A0932E03B0932F03CB
:1007C0008091870290918802A0918902B0918A025B
:1007D0000196A11DB11D8093870290938802A0937A
:1007E0008902B0938A02BF91AF919F918F913F91FF
:1007F0002F910F900FBE0F901F90189526E8230F92
:100800000296A11DB11DD2CF1F920F920FB60F926B
:1008100011240F931F932F933F934F935F936F93E5
:100820007F938F939F93AF93BF93CF93DF93EF9378
:10083000FF9380918B0290918C029093850080931E
:1008400084008091CE038E3609F043C0809130033E
:100850000E94E701EC018091320390913303C817A5
:10086000D907B9F10E949901AB01BC018091340311
:1008700090913503A0913603B09137038A019B0113
:10088000081B190B2A0B3B0BD901C801D09333036A
:10089000C09332034093340350933503609336037F
:1008A00070933703A801B9014F555140610971098F
:1008B000433651056105710508F18D549440A10935
:1008C000B109873C9105A105B10508F4BAC00E94A1
:1008D0001002FF91EF91DF91CF91BF91AF919F9166
:1008E0008F917F916F915F914F913F912F911F91C8
:1008F0000F910F900FBE0F901F9018958091CC0311
:100900009091CD039C012F5F3F4F3093CD032093F7
:10091000CC03880F991FFC01E45CFC4F81E090E060
:10092000CD2B11F090E080E0918380838091F304DF
:100930008823B9F08091CC039091CD03FC01E15361
:10094000FC4F2081022E000C330B880F991FFC01F5
:10095000E65CFC4F808191812817390711F01092D5
:10096000F3048091F4048823B9F08091CC03909132
:10097000CD03FC01E85EFB4F2081022E000C330BFF
:10098000880F991FFC01E65CFC4F8081918128173C
:10099000390711F01092F4048091F5048823B9F01E
:1009A0008091CC039091CD03FC01EF59FB4F208146
:1009B000022E000C330B880F991FFC01E65CFC4FE4
:1009C000808191812817390711F01092F5048091E8
:1009D000F6048823B9F08091CC039091CD03FC01FB
:1009E000E655FB4F2081022E000C330B880F991F18
:1009F000FC01E65CFC4F808191812817390711F0DA
:100A00001092F6048091F30481110DC09091F404CA
:100A1000911109C09091F504911105C09091F604CF
:100A2000992309F454CF2091CC033091CD0328347D
:100A300031050CF44ECF882321F181E68093CE035B
:100A400048CF8091CC039091CD0321E030E0CD2BB5
:100A500011F030E020E0FC01EE0FFF1FE45CFC4FE2
:100A600031832083AC014E5F5F4F5093CD034093A1
:100A7000CC03880F991FFC01E25CFC4F318320837B
:100A800055CF8091F404882311F082E6D7CF80916E
:100A9000F504882311F083E6D1CF8091F6048823F2
:100AA00009F417CF84E6CACFCF93DF93EFE8F2E0E3
:100AB0001382128288EE93E0A0E0B0E084839583F5
:100AC000A683B78388E292E09183808385EC90E0EF
:100AD0009587848784EC90E09787868780EC90E008
:100AE000918B808B81EC90E0938B828B82EC90E0F9
:100AF000958B848B86EC90E0978B868B118E128E73
:100B0000138E148E8FB7F89440912C0350912D03BF
:100B100060912E0370912F038FBFC0E3D3E01B823F
:100B20001A8289E490E099878887E0E0F1E0AFECF1
:100B3000B3E001900D928A95E1F789E4E9E4F1E0F0
:100B4000A8E1B4E001900D928A95E1F789E4E2E929
:100B5000F1E0A1E6B4E001900D928A95E1F789E415
:100B6000EBEDF1E0AAEAB4E001900D928A95E1F78D
:100B70008BE090E099838883DF91CF910C94990169
:100B8000789484B5826084BD84B5816084BD85B568
:100B9000826085BD85B5816085BD80916E00816074
:100BA00080936E001092810080918100826080931A
:100BB000810080918100816080938100809180001C
:100BC0008160809380008091B10084608093B10047
:100BD0008091B00081608093B00080917A00846041
:100BE00080937A0080917A00826080937A0080916D
:100BF0007A00816080937A0080917A008068809387
:100C00007A001092C100E0919F02F091A00282E070
:100C10008083E0919B02F0919C021082E0919D0202
:100C2000F0919E028FEC80831092A702E091A302C4
:100C3000F091A40286E08083E091A102F091A202EB
:100C4000808180618083E091A102F091A202808185
:100C500088608083E091A102F091A2028081806887
:100C60008083E091A102F091A20280818F7D808338
:100C700089E392E00E94CF0262E082E00E94720269
:100C800062E08CE00E94720262E084E00E947202E4
:100C900062E085E00E94720262E086E00E947202D9
:100CA00040E061E087E00E94AE0240E061E088E061
:100CB0000E94AE0241E060E089E00E94AE0240E0A6
:100CC00061E08AE00E94AE0240E060E08BE00E94BA
:100CD000AE0281E080938E0280938D020E9410020A
:100CE000F89410928000109281008CEF9FEF909307
:100CF0008C0280938B029093850080938400809176
:100D00008100826080938100809181008160809366
:100D1000810080916F00816080936F00789400E083
:100D200010E0D3E0FF24F3948FE392E00E94C2022C
:100D300082E00E94E7010E94DD0289E492E00E94C5
:100D4000C20285E00E94E7010E94DD0289E592E08F
:100D50000E94C2028CE00E94E7010E94DD0284E64C
:100D600092E00E94C20286E00E94E7010E94DD023A
:100D700086E392E00E94C20285E00E94E7010197AB
:100D800009F049C082E00E94E701892B39F0809187
:100D9000CE03813609F03FC00E94100282E08093AA
:100DA0008E0284E00E94E701C0918D02892B41F000
:100DB0008091CE038356823008F041C00E94100219
:100DC000F0928E0280918E028C1799F0813009F09A
:100DD00044C060E087E00E94440260E088E00E9436
:100DE000440285E792E00E94CF0280918E028093B8
:100DF0008D028091CE038E3611F00E9410020115F3
:100E0000110509F491CF0E94F600882309F48CCFD4
:100E10000E94000089CF86E00E94E701019709F651
:100E20008CE00E94E701892B39F08091CE03823655
:100E300009F0B7CF0E941002D0938E02B2CFC23019
:100E400039F485E00E94E701892B09F4B9CFBACFC4
:100E5000C33009F0B7CF86E0F5CF823059F461E0B6
:100E600087E00E94440260E088E00E9444028AE732
:100E700092E0B9CF833009F0B8CF60E087E00E94FC
:100E8000440261E088E00E9444028FE792E0ABCF29
:100E9000A1E21A2EAA1BBB1BFD010DC0AA1FBB1F7E
:100EA000EE1FFF1FA217B307E407F50720F0A21BF0
:100EB000B30BE40BF50B661F771F881F991F1A945D
:100EC00069F760957095809590959B01AC01BD0187
:100ED000CF010895EE0FFF1F0590F491E02D0994C6
:040EE000F894FFCFB4
:100EE40001010001000001000001010001000001F6
:100EF40001000101000100000101000100000100E6
:100F040000010100010000010000010000010000D7
:100F140001000001010001000001010001000001C5
:100F240001000100000100000101010001000001B5
:100F340000000101000100000101000101000100A5
:100F44000001010001000001000001010001000096
:100F54000100000100000100000100000101000186
:100F64000000010100010100010000010000010076
:100F74000001010100010000010000010100010065
:100F84000001010001010001000001010001000055
:100F94000100000101000100000100000100000146
:100FA4000000010000010100010000010100010036
:100FB4000001000001000001010001010100010025
:100FC4000001000001010001000001010001010015
:100FD4000100000101000100000100000101000105
:100FE40000000100000100000100000100000101F7
:100FF40000010000010100010000010000010100E6
:1010040001000001000000002C018C00B9007901EE
:10101400EA00C800DC000D0A0073657475700050A6
:10102400494E5F4F50454E200050494E5F4F50454A
:101034004E5F4C494D4954200050494E5F434C4F3C
:101044005345200050494E5F434C4F53455F4C4934
:101054004D4954200073746F70006F70656E0063A7
:061064006C6F73650000D3
:00000001FF
