:100000000C9462000C948A000C948A000C948A0070
:100010000C948A000C948A000C948A000C948A0038
:100020000C948A000C948A000C948A000C94A5030A
:100030000C948A000C94EC030C948A000C948A00B3
:100040000C945B030C948A000C9429030C94030316
:100050000C948A000C948A000C948A000C948A00F8
:100060000C948A000C948A000000000023002600F3
:10007000290000000008000201000003040700003E
:1000800000000000000000000000250028002B00F8
:1000900000000000240027002A00040404040404D3
:1000A0000404020202020202030303030303010227
:1000B00004081020408001020408102001020408F6
:1000C00010201C0411241FBECFEFD8E0DEBFCDBF2F
:1000D00011E0A0E0B1E0E4EBFAE002C005900D927F
:1000E000A032B107D9F722E0A0E2B1E001C01D9231
:1000F000AB36B207E1F710E0C2E6D0E004C02197CA
:10010000FE010E945205C136D107C9F70E945E0464
:100110000C9458050C940000AF92BF92CF92DF92DE
:10012000EF92FF920F931F93CF93DF936C017B01AC
:100130008B01040F151FEB015E01AE18BF08C0173D
:10014000D10759F06991D601ED91FC910190F081B0
:10015000E02DC6010995892B79F7C501DF91CF9173
:100160001F910F91FF90EF90DF90CF90BF90AF90D5
:100170000895FC01538D448D252F30E0842F90E0AD
:10018000821B930B541710F0CF9608950197089592
:10019000FC01918D828D981761F0A28DAE0FBF2F5B
:1001A000B11D5D968C91928D9F5F9F73928F90E0B1
:1001B00008958FEF9FEF0895FC01918D828D981720
:1001C00031F0828DE80FF11D858D90E008958FEF5D
:1001D0009FEF0895FC01918D228D892F90E0805C26
:1001E0009F4F821B91098F73992708958DE291E0AB
:1001F0000E94EA0021E0892B09F420E0822F089573
:1002000080E090E0892B29F00E94F60081110C9487
:1002100000000895FC01A48DA80FB92FB11DA35AA9
:10022000BF4F2C91848D90E001968F739927848F16
:10023000A689B7892C93A089B1898C918370806439
:100240008C93938D848D981306C00288F389E02DDA
:1002500080818F7D80830895EF92FF920F931F938B
:10026000CF93DF93EC0181E0888F9B8D8C8D981369
:100270001AC0E889F989808185FF15C09FB7F89475
:10028000EE89FF896083E889F989808183708064C1
:1002900080839FBF81E090E0DF91CF911F910F910C
:1002A000FF90EF900895F62E0B8D10E00F5F1F4F1B
:1002B0000F731127E02E8C8D8E110CC00FB607FC2A
:1002C000FACFE889F989808185FFF5CFCE010E94B8
:1002D0000A01F1CFEB8DEC0FFD2FF11DE35AFF4F1B
:1002E000F0829FB7F8940B8FEA89FB898081806246
:1002F000CFCFCF93DF93EC01888D8823B9F0AA8903
:10030000BB89E889F9898C9185FD03C0808186FDD0
:100310000DC00FB607FCF7CF8C9185FFF2CF80811F
:1003200085FFEDCFCE010E940A01E9CFDF91CF9189
:1003300008953FB7F8948091270190912801A091EA
:100340002901B0912A0126B5A89B05C02F3F19F0BD
:100350000196A11DB11D3FBFBA2FA92F982F882745
:10036000BC01CD01620F711D811D911D42E0660F20
:10037000771F881F991F4A95D1F70895833081F020
:1003800028F4813099F08230A9F008958730A9F0DF
:100390008830C9F08430B1F4809180008F7D03C033
:1003A000809180008F7780938000089584B58F7747
:1003B00084BD089584B58F7DFBCF8091B0008F7789
:1003C0008093B00008958091B0008F7DF9CFCF93D6
:1003D000DF93282F30E0F901EE58FF4F8491F901A7
:1003E000E255FF4FD491F901E656FF4FC491CC235B
:1003F000A1F081110E94BE01EC2FF0E0EE0FFF1F73
:10040000E859FF4FA591B491EC91ED2381E090E084
:1004100009F480E0DF91CF91089580E090E0FACF79
:100420008BE00E94E7019093CF018093CE010E9460
:1004300099016093670270936802809369029093B8
:100440006A02109266028FEF9FEF9093650280938D
:1004500064022091D0013091D101E2EDF1E090E011
:1004600080E08217930724F4119211920196F9CF3C
:1004700008950F931F93CF93DF938BE00E94E701C2
:10048000EC018091CE019091CF01C817D90709F4F2
:100490005CC00E949901AB01BC0180916702909100
:1004A0006802A0916902B0916A028A019B01081B4F
:1004B000190B2A0B3B0BD901C801D093CF01C09374
:1004C000CE01409367025093680260936902709373
:1004D0006A02A801B9014F555140610971094336BB
:1004E00051056105710578F08D549440A109B10959
:1004F000873C9105A105B10568F1DF91CF911F916E
:100500000F910C94100280916402909165029C01FD
:100510002F5F3F4F3093650220936402880F991F2D
:10052000FC01EC52FE4F81E090E0CD2B11F090E009
:1005300080E0918380838091640290916502883489
:1005400091051CF081E080936602DF91CF911F91AD
:100550000F910895809164029091650221E030E04E
:10056000CD2B11F030E020E0FC01EE0FFF1FEC522C
:10057000FE4F31832083029690936502809364023C
:10058000880F991FFC01EE52FE4F31832083D3CF99
:100590001F93CF93DF93282F30E0F901EE58FF4FE0
:1005A0008491F901E255FF4FD491F901E656FF4FCE
:1005B000C491CC23A9F0162F81110E94BE01EC2F0B
:1005C000F0E0EE0FFF1FEA57FF4FA591B4918FB7F0
:1005D000F894EC91111108C0D095DE23DC938FBF05
:1005E000DF91CF911F910895DE2BF8CFFC01019090
:1005F0000020E9F73197AF01481B590BBC018DE290
:1006000091E00C948C001F920F920FB60F92112460
:100610002F933F934F935F936F937F938F939F930A
:10062000AF93BF93EF93FF938DE291E00E940A0195
:10063000FF91EF91BF91AF919F918F917F916F91BA
:100640005F914F913F912F910F900FBE0F901F9090
:1006500018951F920F920FB60F9211242F938F931C
:100660009F93EF93FF93E0913D01F0913E018081D4
:10067000E0914301F091440182FD1BC09081809183
:1006800046018F5F8F7320914701821741F0E091FF
:100690004601F0E0E35DFE4F958F80934601FF91A8
:1006A000EF919F918F912F910F900FBE0F901F9000
:1006B00018958081F4CF1F920F920FB60F921124DC
:1006C0002F933F938F939F93AF93BF938091CA01D2
:1006D0009091CB01A091CC01B091CD013091260138
:1006E00023E0230F2D3758F50196A11DB11D20934E
:1006F00026018093CA019093CB01A093CC01B093C3
:10070000CD018091270190912801A0912901B091FC
:100710002A010196A11DB11D809327019093280104
:10072000A0932901B0932A01BF91AF919F918F911E
:100730003F912F910F900FBE0F901F90189526E8B4
:10074000230F0296A11DB11DD2CF1F920F920FB69B
:100750000F9211242F933F934F935F936F937F9347
:100760008F939F93AF93BF93EF93FF938091250156
:100770008823D9F08091240191E0980F909324016F
:10078000811113C060E08AE00E94C80260E08CE042
:100790000E94C802109225018091220190912301AC
:1007A0000196909323018093220180912401883047
:1007B00010F010922401FF91EF91BF91AF919F91A2
:1007C0008F917F916F915F914F913F912F910F90FA
:1007D0000FBE0F901F9018951F920F920FB60F9299
:1007E00011242F933F934F935F936F937F938F9336
:1007F0009F93AF93BF93EF93FF9380912B019091C1
:100800002C01909385008093840080916602811171
:1008100002C00E943902FF91EF91BF91AF919F9169
:100820008F917F916F915F914F913F912F910F9099
:100830000FBE0F901F901895EDE2F1E01382128227
:1008400088EE93E0A0E0B0E084839583A683B7832D
:1008500084E091E09183808385EC90E095878487A4
:1008600084EC90E09787868780EC90E0918B808B7A
:1008700081EC90E0938B828B82EC90E0958B848B63
:1008800086EC90E0978B868B118E128E138E148ED1
:100890008FB7F8944091CA015091CB016091CC017F
:1008A0007091CD018FBFEEECF1E01182108289E4EE
:1008B00090E093838283109266020895789484B5C1
:1008C000826084BD84B5816084BD85B5826085BD4C
:1008D00085B5816085BD80916E00816080936E00DA
:1008E00010928100809181008260809381008091CC
:1008F000810081608093810080918000816080937D
:1009000080008091B10084608093B1008091B0003C
:1009100081608093B00080917A00846080937A0037
:1009200080917A00826080937A0080917A00816061
:1009300080937A0080917A00806880937A00109288
:10094000C100E0913D01F0913E0182E08083E091A1
:100950003901F0913A011082E0913B01F0913C01A4
:100960008FEC808310924501E0914101F0914201AA
:1009700086E08083E0913F01F091400180818061B9
:100980008083E0913F01F091400180818860808305
:10099000E0913F01F0914001808180688083E09187
:1009A0003F01F091400180818F7D808382E191E061
:1009B0000E94F60288E191E00E94F602E9EBF0E085
:1009C0002491E5EAF0E084918823C1F090E0880F5B
:1009D000991FFC01E057FF4FC591D491FC01EA57E4
:1009E000FF4FA591B4919FB7F8948881E22FE095CD
:1009F0008E2388838C91E823EC939FBF0E94100282
:100A0000F894109280001092810083E294EF90930A
:100A10002C0180932B01909385008093840080911A
:100A2000810084608093810080916F008160809359
:100A30006F00789480E0E82E80E0F82E80916602C6
:100A4000811102C00E94390280916602882301F15F
:100A500002ED11E0D0E0C0E08091D0019091D10191
:100A6000C817D9077CF4F801819191918F01892BE6
:100A700031F08BE191E00E94F6022196EDCF8DE1FD
:100A800091E0F9CF88E191E00E94F6020E94100205
:100A9000E114F10499F20E94F600882379F20E9491
:100AA0000000CCCFEE0FFF1F0590F491E02D0994CC
:040AB000F894FFCFE8
:100AB400000000002C018C00B9007901EA00C80094
:100AC400DC007365747570000D0A0031003000009D
:00000001FF
