:100000000C9462000C948A000C948A000C948A0070
:100010000C948A000C948A000C948A000C948A0038
:100020000C948A000C948A000C948A000C944E0361
:100030000C948A000C948A000C948A000C948A0018
:100040000C94BE030C948A000C942E040C940804A7
:100050000C948A000C948A000C948A000C948A00F8
:100060000C948A000C948A000000000024002700F1
:100070002A0000000000250028002B0000000000DE
:1000800023002600290004040404040404040202DA
:100090000202020203030303030301020408102007
:1000A0004080010204081020010204081020000012
:1000B0000008000201000003040700000000000027
:1000C0000000600411241FBECFEFD8E0DEBFCDBF1B
:1000D00011E0A0E0B1E0E8E8FBE002C005900D927D
:1000E000A83FB107D9F722E0A8EFB1E001C01D9207
:1000F000A83AB207E1F710E0C2E6D0E004C02197C9
:10010000FE010E94B705C136D107C9F70E948D04D0
:100110000C94C2050C9400008627082E8295807FDF
:100120008025092E982F82958F700826869598270E
:100130008927880F880F880F80250895FC01538D2B
:10014000448D252F30E0842F90E0821B930B5417B1
:1001500010F0CF96089501970895FC01918D828D3E
:10016000981761F0828DDF01A80FB11D5D968C910B
:10017000928D9F5F9F73928F90E008958FEF9FEF16
:100180000895FC01918D828D981731F0828DE80FD2
:10019000F11D858D90E008958FEF9FEF0895FC018C
:1001A000918D228D892F90E0805C9F4F821B910959
:1001B0008F73992708958BE092E00E94CF0021E091
:1001C000892B09F420E0822F0895FC01848DDF0142
:1001D000A80FB11DA35ABF4F2C91848D90E00196BA
:1001E0008F739927848FA689B7892C93A089B189A9
:1001F0008C91837080648C93938D848D981306C04A
:100200000288F389E02D80818F7D80830895EF92AD
:10021000FF920F931F93CF93DF93EC0181E0888FC0
:100220009B8D8C8D981305C0E889F989808185FDA7
:1002300026C0F62E0B8D10E00F5F1F4F0F73112796
:10024000E02E8C8DE8120CC00FB607FCFACFE889BF
:10025000F989808185FFF5CFCE010E94E500F1CFBD
:100260008B8DFE01E80FF11DE35AFF4FF0829FB71F
:10027000F8940B8FEA89FB89808180620AC09FB75E
:10028000F894EE89FF896083E889F9898081837019
:10029000806480839FBF81E090E0DF91CF911F91C8
:1002A0000F91FF90EF900895CF93DF93EC01888D2D
:1002B0008823C9F0EA89FB89808185FD05C0A8896A
:1002C000B9898C9186FD0FC00FB607FCF5CF8081F0
:1002D00085FFF2CFA889B9898C9185FFEDCFCE013A
:1002E0000E94E500E7CFDF91CF91089580E090E094
:1002F000892B29F00E94DB0081110C9400000895E5
:10030000CF92DF92EF92FF920F931F93CF93DF93E1
:100310006C017A018B01C0E0D0E0CE15DF0581F0E1
:10032000D8016D918D01D601ED91FC910190F08184
:10033000E02DC6010995892B11F02196EECF7E01A3
:10034000C701DF91CF911F910F91FF90EF90DF9048
:10035000CF900895089580E090E00895833081F073
:1003600028F4813099F08230A1F008958730A9F007
:100370008830B9F08430D1F4809180008F7D03C043
:10038000809180008F7780938000089584B58F7767
:1003900002C084B58F7D84BD08958091B0008F77B1
:1003A00003C08091B0008F7D8093B0000895CF93FB
:1003B000DF93282F30E0F901E255FF4F8491F901D6
:1003C000E656FF4FD491F901EA57FF4FC491CC2371
:1003D00091F081110E94AE01EC2FF0E0EE0FFF1FB3
:1003E000E458FF4FA591B491EC91ED2381E090E0AA
:1003F00021F480E002C080E090E0DF91CF91089589
:100400001F93CF93DF93282F30E0F901E255FF4F80
:100410008491F901E656FF4FD491F901EA57FF4F55
:10042000C491CC23C1F0162F81110E94AE01EC2F94
:10043000F0E0EE0FFF1FEE58FF4FA591B4919FB76C
:10044000F894111104C08C91D095D82302C0EC917E
:10045000DE2BDC939FBFDF91CF911F910895CF9347
:10046000DF9390E0FC01E656FF4F2491FC01EA5730
:10047000FF4F8491882361F190E0880F991FFC0160
:10048000E859FF4FC591D491FC01EE58FF4FA5915B
:10049000B491611109C09FB7F89488812095822397
:1004A0008883EC912E230BC0623061F49FB7F894DF
:1004B0008881322F309583238883EC912E2B2C93C7
:1004C0009FBF06C08FB7F894E8812E2B28838FBF7B
:1004D000DF91CF910895009769F0FC010190002011
:1004E000E9F73197AF01481B590BBC018BE092E053
:1004F0000C94800180E090E00895AF92BF92CF927B
:10050000DF92EF92FF920F931F93CF93DF937C01C3
:1005100088ED91E00E946B02C7010E946B0285EE9C
:1005200091E00E946B02E70109900020E9F7219712
:10053000CE19DF09BC2E2DE42C1708F49EC0809143
:100540000A028111FCCF1C2F1D5F612F8FEF9FEFDF
:100550000E948C00E12FF0E074E0F595E7957A9524
:10056000E1F7E853FE4F2081209308011F70A12F6F
:10057000B0E0A853BE4F2C9120930901E0E0CE2EAD
:10058000E1E0DE2EAE2C8701A2E0CA0ED11C202FA6
:100590002A192B15E8F47801F80160810E948C007B
:1005A000D801ED918D01F0E064E0F595E7956A954D
:1005B000E1F7E853FE4F2081F6012087D701EC9147
:1005C000EF70F0E0E853FE4F2081F6012187DCCF89
:1005D000CF5FCC0FFC01E095F0958C2F90E0885F09
:1005E0009E4FDF0124E0B695A7952A95E1F7AF70FD
:1005F000BB27A853BE4F2C91DC012C93A1E0AC0F7C
:10060000B0E09D01285F3E4FCF018F70992788533E
:100610009E4FDC018C91D9018C93A2E0AC0FB0E02D
:100620009D01285F3E4FCF01892F992782958F70BA
:1006300088539E4FDC018C91D9018C93A3E0AC0FC1
:10064000B0E0A85FBE4FEF2FFF27EF70FF27E85302
:10065000FE4F80818C93C45FC09307021092080202
:10066000109204021092090260910102C1E06C270D
:100670008AE00E940002C0930A0280910A0281115E
:10068000FCCFDF91CF911F910F91FF90EF90DF9002
:10069000CF90BF90AF9008950E94BD051F920F921A
:1006A0000FB60F9211242F933F934F935F936F9345
:1006B0007F938F939F93AF93BF93CF93DF93EF93EA
:1006C000FF9380910A02882311F18091090291E041
:1006D000980F9093090281111AC0C091080280916D
:1006E0000702C817D8F0609101028AE00E94000258
:1006F00060E08CE00E94000210920A0280910502E4
:1007000090910602019690930602809305028091D3
:100710000902883000F1109209021DC0EC2FF0E0B0
:10072000E050FF4F908180910402D1E0D80FD09328
:10073000040261E070E001C0660F8A95EAF7692360
:100740008CE00E940002D63010F310920402CF5FBA
:10075000C0930802DCCFFF91EF91DF91CF91BF9161
:10076000AF919F918F917F916F915F914F913F9149
:100770002F910F900FBE0F901F9018951F920F9200
:100780000FB60F9211242F933F938F939F93AF93A4
:10079000BF938091FD019091FE01A091FF01B09166
:1007A00000023091FC0123E0230F2D3720F4019645
:1007B000A11DB11D05C026E8230F0296A11DB11D84
:1007C0002093FC018093FD019093FE01A093FF0113
:1007D000B09300028091F8019091F901A091FA0183
:1007E000B091FB010196A11DB11D8093F80190937A
:1007F000F901A093FA01B093FB01BF91AF919F91D2
:100800008F913F912F910F900FBE0F901F901895D1
:100810001F920F920FB60F9211242F933F934F9375
:100820005F936F937F938F939F93AF93BF93EF9358
:10083000FF938BE092E00E94E500FF91EF91BF9162
:10084000AF919F918F917F916F915F914F913F9168
:100850002F910F900FBE0F901F9018951F920F921F
:100860000FB60F9211242F938F939F93EF93FF93C3
:10087000E0911B02F0911C028081E0912102F09135
:10088000220282FD12C09081809124028F5F8F73BB
:1008900020912502821751F0E0912402F0E0E55FFB
:1008A000FD4F958F8093240201C08081FF91EF91CD
:1008B0009F918F912F910F900FBE0F901F901895C1
:1008C000EBE0F2E01382128288EE93E0A0E0B0E069
:1008D00084839583A683B7838AEB91E09183808399
:1008E00085EC90E09587848784EC90E097878687F5
:1008F00080EC90E0918B808B81EC90E0938B828BED
:1009000082EC90E0958B848B86EC90E0978B868BC5
:10091000118E128E138E148E0895CF93DF93CDB760
:10092000DEB72E970FB6F894DEBF0FBECDBF78941A
:1009300084B5826084BD84B5816084BD85B58260E4
:1009400085BD85B5816085BD80916E008160809395
:100950006E001092810080918100826080938100FE
:10096000809181008160809381008091800081600E
:10097000809380008091B10084608093B100809169
:10098000B00081608093B00080917A008460809391
:100990007A0080917A00826080937A0080917A0058
:1009A000816080937A0080917A00806880937A00D9
:1009B0001092C100E0911B02F0911C0282E0808342
:1009C000E0911702F09118021082E0911902F09163
:1009D0001A028FEC808310922302E0911F02F091A3
:1009E000200286E08083E0911D02F0911E0280814A
:1009F00080618083E0911D02F0911E0280818860F9
:100A00008083E0911D02F0911E02808180688083C6
:100A1000E0911D02F0911E0280818F7D808381E034
:100A2000809301028EE0E8EAF1E0DE011196019088
:100A30000D928A95E1F77E0183E0E80EF11C11E04A
:100A4000812C84E2982E84EFA82EB12C90E8492EB8
:100A50009EE3592E612C712CF701219131917F0178
:100A600040E050E0C501B4010E949505CA01B901FA
:100A7000A30192010E9495052230310541055105DF
:100A800020F41F5F173041F728C0163031F11123D1
:100A900021F11092800088E0809381008091810094
:100AA000182B109381003093890020938800809147
:100AB0006F00826080936F0061E08CE00E942F02E3
:100AC00060E08BE00E942F0261E08AE00E942F022A
:100AD000609101028AE00E94000260E082E00E94D0
:100AE0002F0260E083E00E942F0260E084E00E9419
:100AF0002F0283E00E94D701019719F488EE91E05C
:100B00000FC084E00E94D701019719F48DEE91E0A7
:100B100007C082E00E94D701019721F482EF91E0A3
:100B20000E947D020E947601E4CFA1E21A2EAA1B48
:100B3000BB1BFD010DC0AA1FBB1FEE1FFF1FA2178D
:100B4000B307E407F50720F0A21BB30BE40BF50B8A
:100B5000661F771F881F991F1A9469F76095709513
:100B6000809590959B01AC01BD01CF010895EE0FDA
:100B7000FF1F0590F491E02D099481E090E0F89436
:080B80000C94C205F894FFCFAC
:100B88002A2A2A2A2A2A382C0000000000000000FD
:100B9800000000000000000000000000000000004D
:100BA800000000000000000000000000000000003D
:100BB800000000000000000000000000000000002D
:100BC800000000000000000000000000000000001D
:100BD800000000000000000000000000000000000D
:100BE80000000000000000000000000000000000FD
:100BF80000000000000000000000000000000000ED
:100C080000000000000000000000000000000000DC
:100C180000000000000000000000000000000000CC
:100C28000000000000000000000001000800400073
:100C380000010004050D00000000070180019E006E
:100C48005401CF00AD00C1000D0E131516191A1C62
:100C5800232526292A2C323473656E64436F6D6D03
:100C6800616E6420000D0A006F70656E0073746F0A
:080C78007000636C6F736500EE
:00000001FF
